{
  "_format": "hh-sol-artifact-1",
  "contractName": "SnakeGame",
  "sourceName": "contracts/SnakeLadderGame.sol",
  "abi": [
    {
      "inputs": [
        {
          "internalType": "address",
          "name": "_stakeToken",
          "type": "address"
        }
      ],
      "stateMutability": "nonpayable",
      "type": "constructor"
    },
    {
      "inputs": [
        {
          "internalType": "address",
          "name": "token",
          "type": "address"
        }
      ],
      "name": "SafeERC20FailedOperation",
      "type": "error"
    },
    {
      "anonymous": false,
      "inputs": [
        {
          "indexed": true,
          "internalType": "uint256",
          "name": "roomId",
          "type": "uint256"
        },
        {
          "indexed": false,
          "internalType": "address",
          "name": "player",
          "type": "address"
        },
        {
          "indexed": false,
          "internalType": "uint8",
          "name": "roll",
          "type": "uint8"
        }
      ],
      "name": "DiceRolled",
      "type": "event"
    },
    {
      "anonymous": false,
      "inputs": [
        {
          "indexed": true,
          "internalType": "uint256",
          "name": "roomId",
          "type": "uint256"
        },
        {
          "indexed": false,
          "internalType": "address",
          "name": "winner",
          "type": "address"
        }
      ],
      "name": "GameWon",
      "type": "event"
    },
    {
      "anonymous": false,
      "inputs": [
        {
          "indexed": true,
          "internalType": "address",
          "name": "player",
          "type": "address"
        },
        {
          "indexed": false,
          "internalType": "uint256",
          "name": "newWinCount",
          "type": "uint256"
        }
      ],
      "name": "LeaderboardUpdated",
      "type": "event"
    },
    {
      "anonymous": false,
      "inputs": [
        {
          "indexed": true,
          "internalType": "uint256",
          "name": "roomId",
          "type": "uint256"
        },
        {
          "indexed": false,
          "internalType": "address",
          "name": "player",
          "type": "address"
        }
      ],
      "name": "Participated",
      "type": "event"
    },
    {
      "anonymous": false,
      "inputs": [
        {
          "indexed": true,
          "internalType": "uint256",
          "name": "roomId",
          "type": "uint256"
        },
        {
          "indexed": false,
          "internalType": "address",
          "name": "creator",
          "type": "address"
        }
      ],
      "name": "RoomCreated",
      "type": "event"
    },
    {
      "inputs": [
        {
          "internalType": "uint256",
          "name": "roomId",
          "type": "uint256"
        }
      ],
      "name": "autoRoll",
      "outputs": [],
      "stateMutability": "nonpayable",
      "type": "function"
    },
    {
      "inputs": [
        {
          "internalType": "uint256",
          "name": "_requiredParticipants",
          "type": "uint256"
        },
        {
          "internalType": "uint256",
          "name": "_stakeAmount",
          "type": "uint256"
        },
        {
          "internalType": "string",
          "name": "_metadataUri",
          "type": "string"
        }
      ],
      "name": "createRoom",
      "outputs": [],
      "stateMutability": "nonpayable",
      "type": "function"
    },
    {
      "inputs": [
        {
          "internalType": "uint256",
          "name": "roomId",
          "type": "uint256"
        }
      ],
      "name": "extraRoll",
      "outputs": [
        {
          "internalType": "uint8",
          "name": "",
          "type": "uint8"
        }
      ],
      "stateMutability": "nonpayable",
      "type": "function"
    },
    {
      "inputs": [
        {
          "internalType": "uint256",
          "name": "roomId",
          "type": "uint256"
        }
      ],
      "name": "getCurrentPlayer",
      "outputs": [
        {
          "internalType": "address",
          "name": "",
          "type": "address"
        }
      ],
      "stateMutability": "view",
      "type": "function"
    },
    {
      "inputs": [],
      "name": "getCurrentRunningRoomId",
      "outputs": [
        {
          "internalType": "uint256",
          "name": "",
          "type": "uint256"
        }
      ],
      "stateMutability": "view",
      "type": "function"
    },
    {
      "inputs": [],
      "name": "getLastRoomId",
      "outputs": [
        {
          "internalType": "uint256",
          "name": "",
          "type": "uint256"
        }
      ],
      "stateMutability": "view",
      "type": "function"
    },
    {
      "inputs": [
        {
          "internalType": "address",
          "name": "player",
          "type": "address"
        }
      ],
      "name": "getLeaderboardStats",
      "outputs": [
        {
          "internalType": "uint256",
          "name": "",
          "type": "uint256"
        }
      ],
      "stateMutability": "view",
      "type": "function"
    },
    {
      "inputs": [
        {
          "internalType": "address",
          "name": "player",
          "type": "address"
        }
      ],
      "name": "getPlayerRank",
      "outputs": [
        {
          "internalType": "uint256",
          "name": "",
          "type": "uint256"
        }
      ],
      "stateMutability": "view",
      "type": "function"
    },
    {
      "inputs": [
        {
          "internalType": "uint256",
          "name": "roomId",
          "type": "uint256"
        }
      ],
      "name": "getRoomInfo",
      "outputs": [
        {
          "internalType": "address",
          "name": "creator",
          "type": "address"
        },
        {
          "internalType": "uint256",
          "name": "requiredParticipants",
          "type": "uint256"
        },
        {
          "internalType": "uint256",
          "name": "maxParticipants",
          "type": "uint256"
        },
        {
          "internalType": "uint256",
          "name": "stakeAmount",
          "type": "uint256"
        },
        {
          "internalType": "bool",
          "name": "started",
          "type": "bool"
        },
        {
          "internalType": "uint256",
          "name": "gameStartTime",
          "type": "uint256"
        },
        {
          "internalType": "address",
          "name": "winner",
          "type": "address"
        },
        {
          "internalType": "string",
          "name": "metadataUri",
          "type": "string"
        }
      ],
      "stateMutability": "view",
      "type": "function"
    },
    {
      "inputs": [
        {
          "internalType": "uint256",
          "name": "roomId",
          "type": "uint256"
        }
      ],
      "name": "getRoomPlayers",
      "outputs": [
        {
          "internalType": "address[]",
          "name": "",
          "type": "address[]"
        }
      ],
      "stateMutability": "view",
      "type": "function"
    },
    {
      "inputs": [
        {
          "internalType": "uint256",
          "name": "n",
          "type": "uint256"
        }
      ],
      "name": "getTopPlayers",
      "outputs": [
        {
          "internalType": "address[]",
          "name": "players",
          "type": "address[]"
        },
        {
          "internalType": "uint256[]",
          "name": "wins",
          "type": "uint256[]"
        }
      ],
      "stateMutability": "view",
      "type": "function"
    },
    {
      "inputs": [],
      "name": "getTotalLeaderboardPlayers",
      "outputs": [
        {
          "internalType": "uint256",
          "name": "",
          "type": "uint256"
        }
      ],
      "stateMutability": "view",
      "type": "function"
    },
    {
      "inputs": [
        {
          "internalType": "uint256",
          "name": "roomId",
          "type": "uint256"
        },
        {
          "internalType": "address",
          "name": "player",
          "type": "address"
        }
      ],
      "name": "getUserInfo",
      "outputs": [
        {
          "internalType": "uint8",
          "name": "lastPosition",
          "type": "uint8"
        },
        {
          "internalType": "uint8",
          "name": "currentPosition",
          "type": "uint8"
        },
        {
          "internalType": "uint256",
          "name": "lastRollSlot",
          "type": "uint256"
        },
        {
          "internalType": "uint8",
          "name": "lastRoll",
          "type": "uint8"
        },
        {
          "internalType": "uint8",
          "name": "prasad",
          "type": "uint8"
        }
      ],
      "stateMutability": "view",
      "type": "function"
    },
    {
      "inputs": [],
      "name": "globalMaxParticipants",
      "outputs": [
        {
          "internalType": "uint256",
          "name": "",
          "type": "uint256"
        }
      ],
      "stateMutability": "view",
      "type": "function"
    },
    {
      "inputs": [
        {
          "internalType": "uint256",
          "name": "roomId",
          "type": "uint256"
        },
        {
          "internalType": "address",
          "name": "player",
          "type": "address"
        }
      ],
      "name": "hasJoined",
      "outputs": [
        {
          "internalType": "bool",
          "name": "",
          "type": "bool"
        }
      ],
      "stateMutability": "view",
      "type": "function"
    },
    {
      "inputs": [
        {
          "internalType": "address",
          "name": "",
          "type": "address"
        }
      ],
      "name": "leaderboard",
      "outputs": [
        {
          "internalType": "uint256",
          "name": "",
          "type": "uint256"
        }
      ],
      "stateMutability": "view",
      "type": "function"
    },
    {
      "inputs": [
        {
          "internalType": "uint256",
          "name": "roomId",
          "type": "uint256"
        }
      ],
      "name": "participate",
      "outputs": [],
      "stateMutability": "nonpayable",
      "type": "function"
    },
    {
      "inputs": [
        {
          "internalType": "uint256",
          "name": "roomId",
          "type": "uint256"
        }
      ],
      "name": "rollDice",
      "outputs": [
        {
          "internalType": "uint8",
          "name": "",
          "type": "uint8"
        }
      ],
      "stateMutability": "nonpayable",
      "type": "function"
    },
    {
      "inputs": [],
      "name": "roomCount",
      "outputs": [
        {
          "internalType": "uint256",
          "name": "",
          "type": "uint256"
        }
      ],
      "stateMutability": "view",
      "type": "function"
    },
    {
      "inputs": [
        {
          "internalType": "uint256",
          "name": "_newMaxParticipants",
          "type": "uint256"
        }
      ],
      "name": "setGlobalMaxParticipants",
      "outputs": [],
      "stateMutability": "nonpayable",
      "type": "function"
    },
    {
      "inputs": [],
      "name": "stakeToken",
      "outputs": [
        {
          "internalType": "contract IERC20",
          "name": "",
          "type": "address"
        }
      ],
      "stateMutability": "view",
      "type": "function"
    },
    {
      "inputs": [
        {
          "internalType": "uint256",
          "name": "roomId",
          "type": "uint256"
        },
        {
          "internalType": "address",
          "name": "player",
          "type": "address"
        },
        {
          "internalType": "uint8",
          "name": "activityWeight",
          "type": "uint8"
        }
      ],
      "name": "updatePrasadMeter",
      "outputs": [],
      "stateMutability": "nonpayable",
      "type": "function"
    }
  ],
  "bytecode": "0x608060405234801561001057600080fd5b506040516158983803806158988339818101604052810190610032919061052a565b33600560006101000a81548173ffffffffffffffffffffffffffffffffffffffff021916908373ffffffffffffffffffffffffffffffffffffffff16021790555080600760006101000a81548173ffffffffffffffffffffffffffffffffffffffff021916908373ffffffffffffffffffffffffffffffffffffffff1602179055506004600681905550602960046000606360ff16815260200190815260200160002060006101000a81548160ff021916908360ff160217905550604b60046000605f60ff16815260200190815260200160002060006101000a81548160ff021916908360ff160217905550605860046000605c60ff16815260200190815260200160002060006101000a81548160ff021916908360ff160217905550604460046000605960ff16815260200190815260200160002060006101000a81548160ff021916908360ff160217905550603560046000604a60ff16815260200190815260200160002060006101000a81548160ff021916908360ff160217905550601860046000603e60ff16815260200190815260200160002060006101000a81548160ff021916908360ff160217905550601460046000604060ff16815260200190815260200160002060006101000a81548160ff021916908360ff160217905550600b60046000603160ff16815260200190815260200160002060006101000a81548160ff021916908360ff160217905550601960046000602e60ff16815260200190815260200160002060006101000a81548160ff021916908360ff160217905550600660046000601060ff16815260200190815260200160002060006101000a81548160ff021916908360ff160217905550602660046000600260ff16815260200190815260200160002060006101000a81548160ff021916908360ff160217905550600e60046000600760ff16815260200190815260200160002060006101000a81548160ff021916908360ff160217905550601f60046000600860ff16815260200190815260200160002060006101000a81548160ff021916908360ff160217905550601a60046000600f60ff16815260200190815260200160002060006101000a81548160ff021916908360ff160217905550602a60046000601560ff16815260200190815260200160002060006101000a81548160ff021916908360ff160217905550605460046000601c60ff16815260200190815260200160002060006101000a81548160ff021916908360ff160217905550602c60046000602460ff16815260200190815260200160002060006101000a81548160ff021916908360ff160217905550604360046000603360ff16815260200190815260200160002060006101000a81548160ff021916908360ff160217905550605b60046000604760ff16815260200190815260200160002060006101000a81548160ff021916908360ff160217905550606260046000604e60ff16815260200190815260200160002060006101000a81548160ff021916908360ff160217905550605e60046000605760ff16815260200190815260200160002060006101000a81548160ff021916908360ff16021790555050610557565b600080fd5b600073ffffffffffffffffffffffffffffffffffffffff82169050919050565b60006104f7826104cc565b9050919050565b610507816104ec565b811461051257600080fd5b50565b600081519050610524816104fe565b92915050565b6000602082840312156105405761053f6104c7565b5b600061054e84828501610515565b91505092915050565b615332806105666000396000f3fe608060405234801561001057600080fd5b50600436106101425760003560e01c8063845c9306116100b8578063bf76c7b01161007c578063bf76c7b0146103bb578063c1c33bfa146103d7578063d1d33d20146103f5578063df93a4e314610425578063ea16fb7814610443578063eca87ec11461047357610142565b8063845c9306146102f0578063a697cb0e1461030c578063a83812fd1461033c578063acfff3771461035a578063ba3c00671461038a57610142565b80632d7572a41161010a5780632d7572a41461020357806343925cc31461021f57806351ed6a301461024f5780636790d2b51461026d57806368194719146102a457806380f56840146102d457610142565b80630328f964146101475780630e0e0415146101635780631069f3b514610181578063158b6c55146101b557806326638631146101d3575b600080fd5b610161600480360381019061015c9190613c87565b6104a3565b005b61016b61058d565b6040516101789190613cc3565b60405180910390f35b61019b60048036038101906101969190613d3c565b61059a565b6040516101ac959493929190613d98565b60405180910390f35b6101bd6107d8565b6040516101ca9190613cc3565b60405180910390f35b6101ed60048036038101906101e89190613c87565b610899565b6040516101fa9190613dfa565b60405180910390f35b61021d60048036038101906102189190613e41565b6108fd565b005b61023960048036038101906102349190613c87565b610aac565b6040516102469190613f52565b60405180910390f35b610257610b4f565b6040516102649190613fd3565b60405180910390f35b61028760048036038101906102829190613c87565b610b75565b60405161029b989796959493929190614099565b60405180910390f35b6102be60048036038101906102b99190613d3c565b610cb4565b6040516102cb919061411e565b60405180910390f35b6102ee60048036038101906102e9919061426e565b610d1e565b005b61030a60048036038101906103059190613c87565b611171565b005b610326600480360381019061032191906142dd565b6115bc565b6040516103339190613cc3565b60405180910390f35b61034461174c565b6040516103519190613cc3565b60405180910390f35b610374600480360381019061036f9190613c87565b611752565b604051610381919061430a565b60405180910390f35b6103a4600480360381019061039f9190613c87565b612137565b6040516103b29291906143e3565b60405180910390f35b6103d560048036038101906103d09190613c87565b61257e565b005b6103df6130e6565b6040516103ec9190613cc3565b60405180910390f35b61040f600480360381019061040a91906142dd565b6130f0565b60405161041c9190613cc3565b60405180910390f35b61042d613108565b60405161043a9190613cc3565b60405180910390f35b61045d600480360381019061045891906142dd565b61310e565b60405161046a9190613cc3565b60405180910390f35b61048d60048036038101906104889190613c87565b613157565b60405161049a919061430a565b60405180910390f35b600560009054906101000a900473ffffffffffffffffffffffffffffffffffffffff1673ffffffffffffffffffffffffffffffffffffffff163373ffffffffffffffffffffffffffffffffffffffff1614610533576040517f08c379a000000000000000000000000000000000000000000000000000000000815260040161052a90614466565b60405180910390fd5b6001811180156105445750600a8111155b610583576040517f08c379a000000000000000000000000000000000000000000000000000000000815260040161057a906144f8565b60405180910390fd5b8060068190555050565b6000600380549050905090565b60008060008060008060008089815260200190815260200160002090508060080160008873ffffffffffffffffffffffffffffffffffffffff1673ffffffffffffffffffffffffffffffffffffffff16815260200190815260200160002060009054906101000a900460ff16610645576040517f08c379a000000000000000000000000000000000000000000000000000000000815260040161063c90614564565b60405180910390fd5b80600c0160008873ffffffffffffffffffffffffffffffffffffffff1673ffffffffffffffffffffffffffffffffffffffff16815260200190815260200160002060009054906101000a900460ff168160090160008973ffffffffffffffffffffffffffffffffffffffff1673ffffffffffffffffffffffffffffffffffffffff16815260200190815260200160002060009054906101000a900460ff1682600a0160008a73ffffffffffffffffffffffffffffffffffffffff1673ffffffffffffffffffffffffffffffffffffffff1681526020019081526020016000205483600d0160008b73ffffffffffffffffffffffffffffffffffffffff1673ffffffffffffffffffffffffffffffffffffffff16815260200190815260200160002060009054906101000a900460ff1684600b0160008c73ffffffffffffffffffffffffffffffffffffffff1673ffffffffffffffffffffffffffffffffffffffff16815260200190815260200160002060009054906101000a900460ff1695509550955095509550509295509295909350565b60008060015490505b6001811061089057600080600083815260200190815260200160002090508060050160009054906101000a900460ff16801561086d5750600073ffffffffffffffffffffffffffffffffffffffff1681600f0160009054906101000a900473ffffffffffffffffffffffffffffffffffffffff1673ffffffffffffffffffffffffffffffffffffffff16145b1561087c578192505050610896565b508080610888906145b3565b9150506107e1565b50600090505b90565b60008060008084815260200190815260200160002090508060070181600e0154815481106108ca576108c96145dc565b5b9060005260206000200160009054906101000a900473ffffffffffffffffffffffffffffffffffffffff16915050919050565b600560009054906101000a900473ffffffffffffffffffffffffffffffffffffffff1673ffffffffffffffffffffffffffffffffffffffff163373ffffffffffffffffffffffffffffffffffffffff161461098d576040517f08c379a000000000000000000000000000000000000000000000000000000000815260040161098490614466565b60405180910390fd5b600080600085815260200190815260200160002090508060080160008473ffffffffffffffffffffffffffffffffffffffff1673ffffffffffffffffffffffffffffffffffffffff16815260200190815260200160002060009054906101000a900460ff16610a31576040517f08c379a0000000000000000000000000000000000000000000000000000000008152600401610a2890614657565b60405180910390fd5b8181600b0160008573ffffffffffffffffffffffffffffffffffffffff1673ffffffffffffffffffffffffffffffffffffffff16815260200190815260200160002060008282829054906101000a900460ff16610a8e9190614677565b92506101000a81548160ff021916908360ff16021790555050505050565b6060600080838152602001908152602001600020600701805480602002602001604051908101604052809291908181526020018280548015610b4357602002820191906000526020600020905b8160009054906101000a900473ffffffffffffffffffffffffffffffffffffffff1673ffffffffffffffffffffffffffffffffffffffff1681526020019060010190808311610af9575b50505050509050919050565b600760009054906101000a900473ffffffffffffffffffffffffffffffffffffffff1681565b6000806000806000806000606060008060008b815260200190815260200160002090508060010160009054906101000a900473ffffffffffffffffffffffffffffffffffffffff168160020154826003015483600401548460050160009054906101000a900460ff16856006015486600f0160009054906101000a900473ffffffffffffffffffffffffffffffffffffffff1687601001808054610c18906146db565b80601f0160208091040260200160405190810160405280929190818152602001828054610c44906146db565b8015610c915780601f10610c6657610100808354040283529160200191610c91565b820191906000526020600020905b815481529060010190602001808311610c7457829003601f168201915b505050505090509850985098509850985098509850985050919395975091939597565b600080600084815260200190815260200160002060080160008373ffffffffffffffffffffffffffffffffffffffff1673ffffffffffffffffffffffffffffffffffffffff16815260200190815260200160002060009054906101000a900460ff16905092915050565b600183118015610d3057506006548311155b610d6f576040517f08c379a0000000000000000000000000000000000000000000000000000000008152600401610d669061477e565b60405180910390fd5b60008211610db2576040517f08c379a0000000000000000000000000000000000000000000000000000000008152600401610da9906147ea565b60405180910390fd5b6000815111610df6576040517f08c379a0000000000000000000000000000000000000000000000000000000008152600401610ded90614856565b60405180910390fd5b610e45333084600760009054906101000a900473ffffffffffffffffffffffffffffffffffffffff1673ffffffffffffffffffffffffffffffffffffffff166139bb909392919063ffffffff16565b60016000815480929190610e5890614876565b91905055506000806000600154815260200190815260200160002090506001548160000181905550338160010160006101000a81548173ffffffffffffffffffffffffffffffffffffffff021916908373ffffffffffffffffffffffffffffffffffffffff160217905550838160020181905550600654816003018190555082816004018190555081816010019081610ef19190614a60565b5080600701339080600181540180825580915050600190039060005260206000200160009091909190916101000a81548173ffffffffffffffffffffffffffffffffffffffff021916908373ffffffffffffffffffffffffffffffffffffffff16021790555060018160080160003373ffffffffffffffffffffffffffffffffffffffff1673ffffffffffffffffffffffffffffffffffffffff16815260200190815260200160002060006101000a81548160ff02191690831515021790555060018160090160003373ffffffffffffffffffffffffffffffffffffffff1673ffffffffffffffffffffffffffffffffffffffff16815260200190815260200160002060006101000a81548160ff021916908360ff1602179055507fffffffffffffffffffffffffffffffffffffffffffffffffffffffffffffffff81600a0160003373ffffffffffffffffffffffffffffffffffffffff1673ffffffffffffffffffffffffffffffffffffffff16815260200190815260200160002081905550600181600c0160003373ffffffffffffffffffffffffffffffffffffffff1673ffffffffffffffffffffffffffffffffffffffff16815260200190815260200160002060006101000a81548160ff021916908360ff160217905550600081600e018190555060008160110160003373ffffffffffffffffffffffffffffffffffffffff1673ffffffffffffffffffffffffffffffffffffffff16815260200190815260200160002060006101000a81548160ff0219169083151502179055506001547fdeb4915464f2fab35f9ed95b8c2dc62a1af9edc45ebc42643517a7893e49bca8336040516111639190613dfa565b60405180910390a250505050565b600080600083815260200190815260200160002090508060050160009054906101000a900460ff16156111d9576040517f08c379a00000000000000000000000000000000000000000000000000000000081526004016111d090614b7e565b60405180910390fd5b8060030154816007018054905010611226576040517f08c379a000000000000000000000000000000000000000000000000000000000815260040161121d90614bea565b60405180910390fd5b8060080160003373ffffffffffffffffffffffffffffffffffffffff1673ffffffffffffffffffffffffffffffffffffffff16815260200190815260200160002060009054906101000a900460ff16156112b5576040517f08c379a00000000000000000000000000000000000000000000000000000000081526004016112ac90614c56565b60405180910390fd5b61130833308360040154600760009054906101000a900473ffffffffffffffffffffffffffffffffffffffff1673ffffffffffffffffffffffffffffffffffffffff166139bb909392919063ffffffff16565b80600701339080600181540180825580915050600190039060005260206000200160009091909190916101000a81548173ffffffffffffffffffffffffffffffffffffffff021916908373ffffffffffffffffffffffffffffffffffffffff16021790555060018160080160003373ffffffffffffffffffffffffffffffffffffffff1673ffffffffffffffffffffffffffffffffffffffff16815260200190815260200160002060006101000a81548160ff02191690831515021790555060018160090160003373ffffffffffffffffffffffffffffffffffffffff1673ffffffffffffffffffffffffffffffffffffffff16815260200190815260200160002060006101000a81548160ff021916908360ff1602179055507fffffffffffffffffffffffffffffffffffffffffffffffffffffffffffffffff81600a0160003373ffffffffffffffffffffffffffffffffffffffff1673ffffffffffffffffffffffffffffffffffffffff16815260200190815260200160002081905550600181600c0160003373ffffffffffffffffffffffffffffffffffffffff1673ffffffffffffffffffffffffffffffffffffffff16815260200190815260200160002060006101000a81548160ff021916908360ff16021790555060008160110160003373ffffffffffffffffffffffffffffffffffffffff1673ffffffffffffffffffffffffffffffffffffffff16815260200190815260200160002060006101000a81548160ff021916908315150217905550817f6850e1e5da04837e49d432a9f3fc202557ed03c0518544076fd82a2d2eec9b823360405161156d9190613dfa565b60405180910390a280600201548160070180549050036115b85760018160050160006101000a81548160ff021916908315150217905550428160060181905550600081600e01819055505b5050565b600080600260008473ffffffffffffffffffffffffffffffffffffffff1673ffffffffffffffffffffffffffffffffffffffff16815260200190815260200160002054905060008103611613576000915050611747565b60006001905060005b600380549050811015611740578473ffffffffffffffffffffffffffffffffffffffff1660038281548110611654576116536145dc565b5b9060005260206000200160009054906101000a900473ffffffffffffffffffffffffffffffffffffffff1673ffffffffffffffffffffffffffffffffffffffff161415801561171f57508260026000600384815481106116b7576116b66145dc565b5b9060005260206000200160009054906101000a900473ffffffffffffffffffffffffffffffffffffffff1673ffffffffffffffffffffffffffffffffffffffff1673ffffffffffffffffffffffffffffffffffffffff16815260200190815260200160002054115b1561173357818061172f90614876565b9250505b808060010191505061161c565b5080925050505b919050565b60065481565b60008060008084815260200190815260200160002090508060050160009054906101000a900460ff166117ba576040517f08c379a00000000000000000000000000000000000000000000000000000000081526004016117b190614cc2565b60405180910390fd5b8060080160003373ffffffffffffffffffffffffffffffffffffffff1673ffffffffffffffffffffffffffffffffffffffff16815260200190815260200160002060009054906101000a900460ff16611848576040517f08c379a000000000000000000000000000000000000000000000000000000000815260040161183f90614657565b60405180910390fd5b8060070181600e015481548110611862576118616145dc565b5b9060005260206000200160009054906101000a900473ffffffffffffffffffffffffffffffffffffffff1673ffffffffffffffffffffffffffffffffffffffff163373ffffffffffffffffffffffffffffffffffffffff16146118fa576040517f08c379a00000000000000000000000000000000000000000000000000000000081526004016118f190614d2e565b60405180910390fd5b600073ffffffffffffffffffffffffffffffffffffffff1681600f0160009054906101000a900473ffffffffffffffffffffffffffffffffffffffff1673ffffffffffffffffffffffffffffffffffffffff161461198d576040517f08c379a000000000000000000000000000000000000000000000000000000000815260040161198490614d9a565b60405180910390fd5b8060110160003373ffffffffffffffffffffffffffffffffffffffff1673ffffffffffffffffffffffffffffffffffffffff16815260200190815260200160002060009054906101000a900460ff1615611a1c576040517f08c379a0000000000000000000000000000000000000000000000000000000008152600401611a1390614e06565b60405180910390fd5b6000611a2782613a3d565b90508082600a0160003373ffffffffffffffffffffffffffffffffffffffff1673ffffffffffffffffffffffffffffffffffffffff168152602001908152602001600020541080611ad857507fffffffffffffffffffffffffffffffffffffffffffffffffffffffffffffffff82600a0160003373ffffffffffffffffffffffffffffffffffffffff1673ffffffffffffffffffffffffffffffffffffffff16815260200190815260200160002054145b611b17576040517f08c379a0000000000000000000000000000000000000000000000000000000008152600401611b0e90614e72565b60405180910390fd5b6000600160064233604051602001611b30929190614efb565b6040516020818303038152906040528051906020012060001c611b539190614f56565b611b5d9190614f87565b90506000600a84600b0160003373ffffffffffffffffffffffffffffffffffffffff1673ffffffffffffffffffffffffffffffffffffffff16815260200190815260200160002060009054906101000a900460ff16611bbc9190614fbb565b905060008183611bcc9190614677565b905060068160ff161115611bdf57600690505b60008560090160003373ffffffffffffffffffffffffffffffffffffffff1673ffffffffffffffffffffffffffffffffffffffff16815260200190815260200160002060009054906101000a900460ff1690508086600c0160003373ffffffffffffffffffffffffffffffffffffffff1673ffffffffffffffffffffffffffffffffffffffff16815260200190815260200160002060006101000a81548160ff021916908360ff1602179055506000808360ff168360ff16611ca19190614ffa565b905060648161ffff161115611cd057606481611cbd9190615030565b6064611cc99190615030565b9150611cd4565b8091505b611cdd82613ab3565b9150818860090160003373ffffffffffffffffffffffffffffffffffffffff1673ffffffffffffffffffffffffffffffffffffffff16815260200190815260200160002060006101000a81548160ff021916908360ff16021790555060648260ff1603611fb6573388600f0160006101000a81548173ffffffffffffffffffffffffffffffffffffffff021916908373ffffffffffffffffffffffffffffffffffffffff160217905550611dea3389600701805490508a60040154611da29190615066565b600760009054906101000a900473ffffffffffffffffffffffffffffffffffffffff1673ffffffffffffffffffffffffffffffffffffffff16613b1c9092919063ffffffff16565b6000600260003373ffffffffffffffffffffffffffffffffffffffff1673ffffffffffffffffffffffffffffffffffffffff1681526020019081526020016000205403611e95576003339080600181540180825580915050600190039060005260206000200160009091909190916101000a81548173ffffffffffffffffffffffffffffffffffffffff021916908373ffffffffffffffffffffffffffffffffffffffff1602179055505b6001600260003373ffffffffffffffffffffffffffffffffffffffff1673ffffffffffffffffffffffffffffffffffffffff1681526020019081526020016000206000828254611ee59190614f87565b92505081905550897f4dc08ce212d967a2959e5901a545b00fd4f86c108a0de62a8d906b7b0793c6d633604051611f1c9190613dfa565b60405180910390a23373ffffffffffffffffffffffffffffffffffffffff167f24e225604268d6416871b32db1be8e49f497caf8360393b31d71a34a4ce26693600260003373ffffffffffffffffffffffffffffffffffffffff1673ffffffffffffffffffffffffffffffffffffffff16815260200190815260200160002054604051611fa99190613cc3565b60405180910390a2612093565b60068460ff16036120205760018860110160003373ffffffffffffffffffffffffffffffffffffffff1673ffffffffffffffffffffffffffffffffffffffff16815260200190815260200160002060006101000a81548160ff021916908315150217905550612092565b8688600a0160003373ffffffffffffffffffffffffffffffffffffffff1673ffffffffffffffffffffffffffffffffffffffff168152602001908152602001600020819055508760070180549050600189600e015461207f9190614f87565b6120899190614f56565b88600e01819055505b5b8388600d0160003373ffffffffffffffffffffffffffffffffffffffff1673ffffffffffffffffffffffffffffffffffffffff16815260200190815260200160002060006101000a81548160ff021916908360ff160217905550897f1701fdea8aa3a219ddfea8b4cf993f7828c6a5300030a17da093bafa0b3155d1338660405161211f9291906150a8565b60405180910390a28398505050505050505050919050565b6060806000600380549050905080841115612150578093505b8367ffffffffffffffff81111561216a57612169614143565b5b6040519080825280602002602001820160405280156121985781602001602082028036833780820191505090505b5092508367ffffffffffffffff8111156121b5576121b4614143565b5b6040519080825280602002602001820160405280156121e35781602001602082028036833780820191505090505b50915060008167ffffffffffffffff81111561220257612201614143565b5b6040519080825280602002602001820160405280156122305781602001602082028036833780820191505090505b50905060005b8281101561226b5780828281518110612252576122516145dc565b5b6020026020010181815250508080600101915050612236565b5060005b858110156125765760006001826122869190614f87565b90505b83811015612449576002600060038584815181106122aa576122a96145dc565b5b6020026020010151815481106122c3576122c26145dc565b5b9060005260206000200160009054906101000a900473ffffffffffffffffffffffffffffffffffffffff1673ffffffffffffffffffffffffffffffffffffffff1673ffffffffffffffffffffffffffffffffffffffff16815260200190815260200160002054600260006003868681518110612342576123416145dc565b5b60200260200101518154811061235b5761235a6145dc565b5b9060005260206000200160009054906101000a900473ffffffffffffffffffffffffffffffffffffffff1673ffffffffffffffffffffffffffffffffffffffff1673ffffffffffffffffffffffffffffffffffffffff16815260200190815260200160002054101561243c578281815181106123da576123d96145dc565b5b60200260200101518383815181106123f5576123f46145dc565b5b60200260200101518484815181106124105761240f6145dc565b5b6020026020010185848151811061242a576124296145dc565b5b60200260200101828152508281525050505b8080600101915050612289565b50600382828151811061245f5761245e6145dc565b5b602002602001015181548110612478576124776145dc565b5b9060005260206000200160009054906101000a900473ffffffffffffffffffffffffffffffffffffffff168582815181106124b6576124b56145dc565b5b602002602001019073ffffffffffffffffffffffffffffffffffffffff16908173ffffffffffffffffffffffffffffffffffffffff168152505060026000868381518110612507576125066145dc565b5b602002602001015173ffffffffffffffffffffffffffffffffffffffff1673ffffffffffffffffffffffffffffffffffffffff1681526020019081526020016000205484828151811061255d5761255c6145dc565b5b602002602001018181525050808060010191505061226f565b505050915091565b600080600083815260200190815260200160002090508060050160009054906101000a900460ff166125e5576040517f08c379a00000000000000000000000000000000000000000000000000000000081526004016125dc90614cc2565b60405180910390fd5b600073ffffffffffffffffffffffffffffffffffffffff1681600f0160009054906101000a900473ffffffffffffffffffffffffffffffffffffffff1673ffffffffffffffffffffffffffffffffffffffff1614612678576040517f08c379a000000000000000000000000000000000000000000000000000000000815260040161266f90614d9a565b60405180910390fd5b600061268382613a3d565b905060005b82600701805490508110156130df5760008360070182815481106126af576126ae6145dc565b5b9060005260206000200160009054906101000a900473ffffffffffffffffffffffffffffffffffffffff1690508284600a0160008373ffffffffffffffffffffffffffffffffffffffff1673ffffffffffffffffffffffffffffffffffffffff1681526020019081526020016000205410156130d157600060016006428460405160200161273e929190614efb565b6040516020818303038152906040528051906020012060001c6127619190614f56565b61276b9190614f87565b90506000600a86600b0160008573ffffffffffffffffffffffffffffffffffffffff1673ffffffffffffffffffffffffffffffffffffffff16815260200190815260200160002060009054906101000a900460ff166127ca9190614fbb565b9050600081836127da9190614677565b905060068160ff1611156127ed57600690505b60008760090160008673ffffffffffffffffffffffffffffffffffffffff1673ffffffffffffffffffffffffffffffffffffffff16815260200190815260200160002060009054906101000a900460ff1690508088600c0160008773ffffffffffffffffffffffffffffffffffffffff1673ffffffffffffffffffffffffffffffffffffffff16815260200190815260200160002060006101000a81548160ff021916908360ff1602179055506000808360ff168360ff166128af9190614ffa565b905060648161ffff1611156128de576064816128cb9190615030565b60646128d79190615030565b91506128e2565b8091505b6128eb82613ab3565b9150818a60090160008973ffffffffffffffffffffffffffffffffffffffff1673ffffffffffffffffffffffffffffffffffffffff16815260200190815260200160002060006101000a81548160ff021916908360ff1602179055508a7f1701fdea8aa3a219ddfea8b4cf993f7828c6a5300030a17da093bafa0b3155d188866040516129799291906150a8565b60405180910390a260648260ff1603612c0857868a600f0160006101000a81548173ffffffffffffffffffffffffffffffffffffffff021916908373ffffffffffffffffffffffffffffffffffffffff160217905550612a32878b600701805490508c600401546129ea9190615066565b600760009054906101000a900473ffffffffffffffffffffffffffffffffffffffff1673ffffffffffffffffffffffffffffffffffffffff16613b1c9092919063ffffffff16565b6000600260008973ffffffffffffffffffffffffffffffffffffffff1673ffffffffffffffffffffffffffffffffffffffff1681526020019081526020016000205403612add576003879080600181540180825580915050600190039060005260206000200160009091909190916101000a81548173ffffffffffffffffffffffffffffffffffffffff021916908373ffffffffffffffffffffffffffffffffffffffff1602179055505b6001600260008973ffffffffffffffffffffffffffffffffffffffff1673ffffffffffffffffffffffffffffffffffffffff1681526020019081526020016000206000828254612b2d9190614f87565b925050819055508a7f4dc08ce212d967a2959e5901a545b00fd4f86c108a0de62a8d906b7b0793c6d688604051612b649190613dfa565b60405180910390a28673ffffffffffffffffffffffffffffffffffffffff167f24e225604268d6416871b32db1be8e49f497caf8360393b31d71a34a4ce26693600260008a73ffffffffffffffffffffffffffffffffffffffff1673ffffffffffffffffffffffffffffffffffffffff16815260200190815260200160002054604051612bf19190613cc3565b60405180910390a2505050505050505050506130e3565b60068460ff160361302a57600060016006428a604051602001612c2c929190615128565b6040516020818303038152906040528051906020012060001c612c4f9190614f56565b612c599190614f87565b9050829350838b600c0160008a73ffffffffffffffffffffffffffffffffffffffff1673ffffffffffffffffffffffffffffffffffffffff16815260200190815260200160002060006101000a81548160ff021916908360ff16021790555060008160ff168560ff16612ccc9190614ffa565b905060648161ffff161115612cfb57606481612ce89190615030565b6064612cf49190615030565b9350612cff565b8093505b612d0884613ab3565b9350838c60090160008b73ffffffffffffffffffffffffffffffffffffffff1673ffffffffffffffffffffffffffffffffffffffff16815260200190815260200160002060006101000a81548160ff021916908360ff1602179055508c7f1701fdea8aa3a219ddfea8b4cf993f7828c6a5300030a17da093bafa0b3155d18a84604051612d969291906150a8565b60405180910390a260648460ff160361302757888c600f0160006101000a81548173ffffffffffffffffffffffffffffffffffffffff021916908373ffffffffffffffffffffffffffffffffffffffff160217905550612e4f898d600701805490508e60040154612e079190615066565b600760009054906101000a900473ffffffffffffffffffffffffffffffffffffffff1673ffffffffffffffffffffffffffffffffffffffff16613b1c9092919063ffffffff16565b6000600260008b73ffffffffffffffffffffffffffffffffffffffff1673ffffffffffffffffffffffffffffffffffffffff1681526020019081526020016000205403612efa576003899080600181540180825580915050600190039060005260206000200160009091909190916101000a81548173ffffffffffffffffffffffffffffffffffffffff021916908373ffffffffffffffffffffffffffffffffffffffff1602179055505b6001600260008b73ffffffffffffffffffffffffffffffffffffffff1673ffffffffffffffffffffffffffffffffffffffff1681526020019081526020016000206000828254612f4a9190614f87565b925050819055508c7f4dc08ce212d967a2959e5901a545b00fd4f86c108a0de62a8d906b7b0793c6d68a604051612f819190613dfa565b60405180910390a28873ffffffffffffffffffffffffffffffffffffffff167f24e225604268d6416871b32db1be8e49f497caf8360393b31d71a34a4ce26693600260008c73ffffffffffffffffffffffffffffffffffffffff1673ffffffffffffffffffffffffffffffffffffffff1681526020019081526020016000205460405161300e9190613cc3565b60405180910390a25050505050505050505050506130e3565b50505b838a600d0160008973ffffffffffffffffffffffffffffffffffffffff1673ffffffffffffffffffffffffffffffffffffffff16815260200190815260200160002060006101000a81548160ff021916908360ff160217905550888a600a0160008973ffffffffffffffffffffffffffffffffffffffff1673ffffffffffffffffffffffffffffffffffffffff168152602001908152602001600020819055505050505050505b508080600101915050612688565b5050505b50565b6000600154905090565b60026020528060005260406000206000915090505481565b60015481565b6000600260008373ffffffffffffffffffffffffffffffffffffffff1673ffffffffffffffffffffffffffffffffffffffff168152602001908152602001600020549050919050565b60008060008084815260200190815260200160002090508060050160009054906101000a900460ff166131bf576040517f08c379a00000000000000000000000000000000000000000000000000000000081526004016131b690614cc2565b60405180910390fd5b8060080160003373ffffffffffffffffffffffffffffffffffffffff1673ffffffffffffffffffffffffffffffffffffffff16815260200190815260200160002060009054906101000a900460ff1661324d576040517f08c379a000000000000000000000000000000000000000000000000000000000815260040161324490614657565b60405180910390fd5b600073ffffffffffffffffffffffffffffffffffffffff1681600f0160009054906101000a900473ffffffffffffffffffffffffffffffffffffffff1673ffffffffffffffffffffffffffffffffffffffff16146132e0576040517f08c379a00000000000000000000000000000000000000000000000000000000081526004016132d790614d9a565b60405180910390fd5b8060110160003373ffffffffffffffffffffffffffffffffffffffff1673ffffffffffffffffffffffffffffffffffffffff16815260200190815260200160002060009054906101000a900460ff1661336e576040517f08c379a0000000000000000000000000000000000000000000000000000000008152600401613365906151ab565b60405180910390fd5b8060070181600e015481548110613388576133876145dc565b5b9060005260206000200160009054906101000a900473ffffffffffffffffffffffffffffffffffffffff1673ffffffffffffffffffffffffffffffffffffffff163373ffffffffffffffffffffffffffffffffffffffff1614613420576040517f08c379a000000000000000000000000000000000000000000000000000000000815260040161341790614d2e565b60405180910390fd5b6000600160064233604051602001613439929190615128565b6040516020818303038152906040528051906020012060001c61345c9190614f56565b6134669190614f87565b9050600081905060008360090160003373ffffffffffffffffffffffffffffffffffffffff1673ffffffffffffffffffffffffffffffffffffffff16815260200190815260200160002060009054906101000a900460ff1690508084600c0160003373ffffffffffffffffffffffffffffffffffffffff1673ffffffffffffffffffffffffffffffffffffffff16815260200190815260200160002060006101000a81548160ff021916908360ff1602179055506000808360ff168360ff1661352f9190614ffa565b905060648161ffff16111561355e5760648161354b9190615030565b60646135579190615030565b9150613562565b8091505b61356b82613ab3565b9150818660090160003373ffffffffffffffffffffffffffffffffffffffff1673ffffffffffffffffffffffffffffffffffffffff16815260200190815260200160002060006101000a81548160ff021916908360ff16021790555060648260ff1603613840573386600f0160006101000a81548173ffffffffffffffffffffffffffffffffffffffff021916908373ffffffffffffffffffffffffffffffffffffffff16021790555061367833876007018054905088600401546136309190615066565b600760009054906101000a900473ffffffffffffffffffffffffffffffffffffffff1673ffffffffffffffffffffffffffffffffffffffff16613b1c9092919063ffffffff16565b6000600260003373ffffffffffffffffffffffffffffffffffffffff1673ffffffffffffffffffffffffffffffffffffffff1681526020019081526020016000205403613723576003339080600181540180825580915050600190039060005260206000200160009091909190916101000a81548173ffffffffffffffffffffffffffffffffffffffff021916908373ffffffffffffffffffffffffffffffffffffffff1602179055505b6001600260003373ffffffffffffffffffffffffffffffffffffffff1673ffffffffffffffffffffffffffffffffffffffff16815260200190815260200160002060008282546137739190614f87565b92505081905550877f4dc08ce212d967a2959e5901a545b00fd4f86c108a0de62a8d906b7b0793c6d6336040516137aa9190613dfa565b60405180910390a23373ffffffffffffffffffffffffffffffffffffffff167f24e225604268d6416871b32db1be8e49f497caf8360393b31d71a34a4ce26693600260003373ffffffffffffffffffffffffffffffffffffffff1673ffffffffffffffffffffffffffffffffffffffff168152602001908152602001600020546040516138379190613cc3565b60405180910390a25b8386600d0160003373ffffffffffffffffffffffffffffffffffffffff1673ffffffffffffffffffffffffffffffffffffffff16815260200190815260200160002060006101000a81548160ff021916908360ff160217905550877f1701fdea8aa3a219ddfea8b4cf993f7828c6a5300030a17da093bafa0b3155d133866040516138cc9291906150a8565b60405180910390a260006138df87613a3d565b905060008760110160003373ffffffffffffffffffffffffffffffffffffffff1673ffffffffffffffffffffffffffffffffffffffff16815260200190815260200160002060006101000a81548160ff0219169083151502179055508087600a0160003373ffffffffffffffffffffffffffffffffffffffff1673ffffffffffffffffffffffffffffffffffffffff168152602001908152602001600020819055508660070180549050600188600e015461399a9190614f87565b6139a49190614f56565b87600e018190555084975050505050505050919050565b613a37848573ffffffffffffffffffffffffffffffffffffffff166323b872dd8686866040516024016139f0939291906151cb565b604051602081830303815290604052915060e01b6020820180517bffffffffffffffffffffffffffffffffffffffffffffffffffffffff8381831617835250505050613b9b565b50505050565b60008160050160009054906101000a900460ff16613a90576040517f08c379a0000000000000000000000000000000000000000000000000000000008152600401613a879061524e565b60405180910390fd5b6078826006015442613aa2919061526e565b613aac91906152a2565b9050919050565b600080600460008460ff1660ff16815260200190815260200160002060009054906101000a900460ff1660ff1614613b1357600460008360ff1660ff16815260200190815260200160002060009054906101000a900460ff169050613b17565b8190505b919050565b613b96838473ffffffffffffffffffffffffffffffffffffffff1663a9059cbb8585604051602401613b4f9291906152d3565b604051602081830303815290604052915060e01b6020820180517bffffffffffffffffffffffffffffffffffffffffffffffffffffffff8381831617835250505050613b9b565b505050565b600080602060008451602086016000885af180613bbe576040513d6000823e3d81fd5b3d925060005191505060008214613bd9576001811415613bf5565b60008473ffffffffffffffffffffffffffffffffffffffff163b145b15613c3757836040517f5274afe7000000000000000000000000000000000000000000000000000000008152600401613c2e9190613dfa565b60405180910390fd5b50505050565b6000604051905090565b600080fd5b600080fd5b6000819050919050565b613c6481613c51565b8114613c6f57600080fd5b50565b600081359050613c8181613c5b565b92915050565b600060208284031215613c9d57613c9c613c47565b5b6000613cab84828501613c72565b91505092915050565b613cbd81613c51565b82525050565b6000602082019050613cd86000830184613cb4565b92915050565b600073ffffffffffffffffffffffffffffffffffffffff82169050919050565b6000613d0982613cde565b9050919050565b613d1981613cfe565b8114613d2457600080fd5b50565b600081359050613d3681613d10565b92915050565b60008060408385031215613d5357613d52613c47565b5b6000613d6185828601613c72565b9250506020613d7285828601613d27565b9150509250929050565b600060ff82169050919050565b613d9281613d7c565b82525050565b600060a082019050613dad6000830188613d89565b613dba6020830187613d89565b613dc76040830186613cb4565b613dd46060830185613d89565b613de16080830184613d89565b9695505050505050565b613df481613cfe565b82525050565b6000602082019050613e0f6000830184613deb565b92915050565b613e1e81613d7c565b8114613e2957600080fd5b50565b600081359050613e3b81613e15565b92915050565b600080600060608486031215613e5a57613e59613c47565b5b6000613e6886828701613c72565b9350506020613e7986828701613d27565b9250506040613e8a86828701613e2c565b9150509250925092565b600081519050919050565b600082825260208201905092915050565b6000819050602082019050919050565b613ec981613cfe565b82525050565b6000613edb8383613ec0565b60208301905092915050565b6000602082019050919050565b6000613eff82613e94565b613f098185613e9f565b9350613f1483613eb0565b8060005b83811015613f45578151613f2c8882613ecf565b9750613f3783613ee7565b925050600181019050613f18565b5085935050505092915050565b60006020820190508181036000830152613f6c8184613ef4565b905092915050565b6000819050919050565b6000613f99613f94613f8f84613cde565b613f74565b613cde565b9050919050565b6000613fab82613f7e565b9050919050565b6000613fbd82613fa0565b9050919050565b613fcd81613fb2565b82525050565b6000602082019050613fe86000830184613fc4565b92915050565b60008115159050919050565b61400381613fee565b82525050565b600081519050919050565b600082825260208201905092915050565b60005b83811015614043578082015181840152602081019050614028565b60008484015250505050565b6000601f19601f8301169050919050565b600061406b82614009565b6140758185614014565b9350614085818560208601614025565b61408e8161404f565b840191505092915050565b6000610100820190506140af600083018b613deb565b6140bc602083018a613cb4565b6140c96040830189613cb4565b6140d66060830188613cb4565b6140e36080830187613ffa565b6140f060a0830186613cb4565b6140fd60c0830185613deb565b81810360e083015261410f8184614060565b90509998505050505050505050565b60006020820190506141336000830184613ffa565b92915050565b600080fd5b600080fd5b7f4e487b7100000000000000000000000000000000000000000000000000000000600052604160045260246000fd5b61417b8261404f565b810181811067ffffffffffffffff8211171561419a57614199614143565b5b80604052505050565b60006141ad613c3d565b90506141b98282614172565b919050565b600067ffffffffffffffff8211156141d9576141d8614143565b5b6141e28261404f565b9050602081019050919050565b82818337600083830152505050565b600061421161420c846141be565b6141a3565b90508281526020810184848401111561422d5761422c61413e565b5b6142388482856141ef565b509392505050565b600082601f83011261425557614254614139565b5b81356142658482602086016141fe565b91505092915050565b60008060006060848603121561428757614286613c47565b5b600061429586828701613c72565b93505060206142a686828701613c72565b925050604084013567ffffffffffffffff8111156142c7576142c6613c4c565b5b6142d386828701614240565b9150509250925092565b6000602082840312156142f3576142f2613c47565b5b600061430184828501613d27565b91505092915050565b600060208201905061431f6000830184613d89565b92915050565b600081519050919050565b600082825260208201905092915050565b6000819050602082019050919050565b61435a81613c51565b82525050565b600061436c8383614351565b60208301905092915050565b6000602082019050919050565b600061439082614325565b61439a8185614330565b93506143a583614341565b8060005b838110156143d65781516143bd8882614360565b97506143c883614378565b9250506001810190506143a9565b5085935050505092915050565b600060408201905081810360008301526143fd8185613ef4565b905081810360208301526144118184614385565b90509392505050565b7f4f6e6c79206f776e65722063616e2063616c6c20746869730000000000000000600082015250565b6000614450601883614014565b915061445b8261441a565b602082019050919050565b6000602082019050818103600083015261447f81614443565b9050919050565b7f4d6178207061727469636970616e7473206d757374206265206265747765656e60008201527f203220616e642031300000000000000000000000000000000000000000000000602082015250565b60006144e2602983614014565b91506144ed82614486565b604082019050919050565b60006020820190508181036000830152614511816144d5565b9050919050565b7f506c61796572206e6f7420696e20726f6f6d0000000000000000000000000000600082015250565b600061454e601283614014565b915061455982614518565b602082019050919050565b6000602082019050818103600083015261457d81614541565b9050919050565b7f4e487b7100000000000000000000000000000000000000000000000000000000600052601160045260246000fd5b60006145be82613c51565b9150600082036145d1576145d0614584565b5b600182039050919050565b7f4e487b7100000000000000000000000000000000000000000000000000000000600052603260045260246000fd5b7f4e6f74206a6f696e656400000000000000000000000000000000000000000000600082015250565b6000614641600a83614014565b915061464c8261460b565b602082019050919050565b6000602082019050818103600083015261467081614634565b9050919050565b600061468282613d7c565b915061468d83613d7c565b9250828201905060ff8111156146a6576146a5614584565b5b92915050565b7f4e487b7100000000000000000000000000000000000000000000000000000000600052602260045260246000fd5b600060028204905060018216806146f357607f821691505b602082108103614706576147056146ac565b5b50919050565b7f496e76616c6964207061727469636970616e7420636f756e7420666f7220637560008201527f7272656e7420676c6f62616c206d617800000000000000000000000000000000602082015250565b6000614768603083614014565b91506147738261470c565b604082019050919050565b600060208201905081810360008301526147978161475b565b9050919050565b7f5374616b65207265717569726564000000000000000000000000000000000000600082015250565b60006147d4600e83614014565b91506147df8261479e565b602082019050919050565b60006020820190508181036000830152614803816147c7565b9050919050565b7f4d65746164617461205552492072657175697265640000000000000000000000600082015250565b6000614840601583614014565b915061484b8261480a565b602082019050919050565b6000602082019050818103600083015261486f81614833565b9050919050565b600061488182613c51565b91507fffffffffffffffffffffffffffffffffffffffffffffffffffffffffffffffff82036148b3576148b2614584565b5b600182019050919050565b60008190508160005260206000209050919050565b60006020601f8301049050919050565b600082821b905092915050565b6000600883026149207fffffffffffffffffffffffffffffffffffffffffffffffffffffffffffffffff826148e3565b61492a86836148e3565b95508019841693508086168417925050509392505050565b600061495d61495861495384613c51565b613f74565b613c51565b9050919050565b6000819050919050565b61497783614942565b61498b61498382614964565b8484546148f0565b825550505050565b600090565b6149a0614993565b6149ab81848461496e565b505050565b5b818110156149cf576149c4600082614998565b6001810190506149b1565b5050565b601f821115614a14576149e5816148be565b6149ee846148d3565b810160208510156149fd578190505b614a11614a09856148d3565b8301826149b0565b50505b505050565b600082821c905092915050565b6000614a3760001984600802614a19565b1980831691505092915050565b6000614a508383614a26565b9150826002028217905092915050565b614a6982614009565b67ffffffffffffffff811115614a8257614a81614143565b5b614a8c82546146db565b614a978282856149d3565b600060209050601f831160018114614aca5760008415614ab8578287015190505b614ac28582614a44565b865550614b2a565b601f198416614ad8866148be565b60005b82811015614b0057848901518255600182019150602085019450602081019050614adb565b86831015614b1d5784890151614b19601f891682614a26565b8355505b6001600288020188555050505b505050505050565b7f47616d6520737461727465640000000000000000000000000000000000000000600082015250565b6000614b68600c83614014565b9150614b7382614b32565b602082019050919050565b60006020820190508181036000830152614b9781614b5b565b9050919050565b7f526f6f6d2066756c6c0000000000000000000000000000000000000000000000600082015250565b6000614bd4600983614014565b9150614bdf82614b9e565b602082019050919050565b60006020820190508181036000830152614c0381614bc7565b9050919050565b7f416c7265616479206a6f696e6564000000000000000000000000000000000000600082015250565b6000614c40600e83614014565b9150614c4b82614c0a565b602082019050919050565b60006020820190508181036000830152614c6f81614c33565b9050919050565b7f4e6f742073746172746564000000000000000000000000000000000000000000600082015250565b6000614cac600b83614014565b9150614cb782614c76565b602082019050919050565b60006020820190508181036000830152614cdb81614c9f565b9050919050565b7f4e6f7420796f7572207475726e00000000000000000000000000000000000000600082015250565b6000614d18600d83614014565b9150614d2382614ce2565b602082019050919050565b60006020820190508181036000830152614d4781614d0b565b9050919050565b7f47616d65206f7665720000000000000000000000000000000000000000000000600082015250565b6000614d84600983614014565b9150614d8f82614d4e565b602082019050919050565b60006020820190508181036000830152614db381614d77565b9050919050565b7f4d7573742075736520657874726120726f6c6c00000000000000000000000000600082015250565b6000614df0601383614014565b9150614dfb82614dba565b602082019050919050565b60006020820190508181036000830152614e1f81614de3565b9050919050565b7f526f6c6c206e6f7420616c6c6f77656420696e2063757272656e7420736c6f74600082015250565b6000614e5c602083614014565b9150614e6782614e26565b602082019050919050565b60006020820190508181036000830152614e8b81614e4f565b9050919050565b6000819050919050565b614ead614ea882613c51565b614e92565b82525050565b60008160601b9050919050565b6000614ecb82614eb3565b9050919050565b6000614edd82614ec0565b9050919050565b614ef5614ef082613cfe565b614ed2565b82525050565b6000614f078285614e9c565b602082019150614f178284614ee4565b6014820191508190509392505050565b7f4e487b7100000000000000000000000000000000000000000000000000000000600052601260045260246000fd5b6000614f6182613c51565b9150614f6c83613c51565b925082614f7c57614f7b614f27565b5b828206905092915050565b6000614f9282613c51565b9150614f9d83613c51565b9250828201905080821115614fb557614fb4614584565b5b92915050565b6000614fc682613d7c565b9150614fd183613d7c565b925082614fe157614fe0614f27565b5b828204905092915050565b600061ffff82169050919050565b600061500582614fec565b915061501083614fec565b9250828201905061ffff81111561502a57615029614584565b5b92915050565b600061503b82614fec565b915061504683614fec565b9250828203905061ffff8111156150605761505f614584565b5b92915050565b600061507182613c51565b915061507c83613c51565b925082820261508a81613c51565b915082820484148315176150a1576150a0614584565b5b5092915050565b60006040820190506150bd6000830185613deb565b6150ca6020830184613d89565b9392505050565b600081905092915050565b7f6578747261000000000000000000000000000000000000000000000000000000600082015250565b60006151126005836150d1565b915061511d826150dc565b600582019050919050565b60006151348285614e9c565b6020820191506151448284614ee4565b60148201915061515382615105565b91508190509392505050565b7f4e6f20657874726120726f6c6c206772616e7465640000000000000000000000600082015250565b6000615195601583614014565b91506151a08261515f565b602082019050919050565b600060208201905081810360008301526151c481615188565b9050919050565b60006060820190506151e06000830186613deb565b6151ed6020830185613deb565b6151fa6040830184613cb4565b949350505050565b7f47616d65206e6f74207374617274656400000000000000000000000000000000600082015250565b6000615238601083614014565b915061524382615202565b602082019050919050565b600060208201905081810360008301526152678161522b565b9050919050565b600061527982613c51565b915061528483613c51565b925082820390508181111561529c5761529b614584565b5b92915050565b60006152ad82613c51565b91506152b883613c51565b9250826152c8576152c7614f27565b5b828204905092915050565b60006040820190506152e86000830185613deb565b6152f56020830184613cb4565b939250505056fea264697066735822122018b0097f793d2b6e7802a770f2161e5b792cf6a924886158f7c7715170a674db64736f6c634300081c0033",
  "linkReferences": {},
  "deployedLinkReferences": {}
}