{
  "_format": "hh-sol-artifact-1",
  "contractName": "SnakeGame",
  "sourceName": "contracts/SnakeLadderGame.sol",
  "abi": [
    {
      "inputs": [
        {
          "internalType": "address",
          "name": "_stakeToken",
          "type": "address"
        }
      ],
      "stateMutability": "nonpayable",
      "type": "constructor"
    },
    {
      "inputs": [
        {
          "internalType": "address",
          "name": "token",
          "type": "address"
        }
      ],
      "name": "SafeERC20FailedOperation",
      "type": "error"
    },
    {
      "anonymous": false,
      "inputs": [
        {
          "indexed": true,
          "internalType": "uint256",
          "name": "roomId",
          "type": "uint256"
        },
        {
          "indexed": false,
          "internalType": "address",
          "name": "player",
          "type": "address"
        },
        {
          "indexed": false,
          "internalType": "uint8",
          "name": "roll",
          "type": "uint8"
        }
      ],
      "name": "DiceRolled",
      "type": "event"
    },
    {
      "anonymous": false,
      "inputs": [
        {
          "indexed": true,
          "internalType": "uint256",
          "name": "roomId",
          "type": "uint256"
        },
        {
          "indexed": false,
          "internalType": "address",
          "name": "winner",
          "type": "address"
        }
      ],
      "name": "GameWon",
      "type": "event"
    },
    {
      "anonymous": false,
      "inputs": [
        {
          "indexed": true,
          "internalType": "uint256",
          "name": "roomId",
          "type": "uint256"
        },
        {
          "indexed": false,
          "internalType": "address",
          "name": "player",
          "type": "address"
        }
      ],
      "name": "Participated",
      "type": "event"
    },
    {
      "anonymous": false,
      "inputs": [
        {
          "indexed": true,
          "internalType": "uint256",
          "name": "roomId",
          "type": "uint256"
        },
        {
          "indexed": false,
          "internalType": "address",
          "name": "creator",
          "type": "address"
        }
      ],
      "name": "RoomCreated",
      "type": "event"
    },
    {
      "inputs": [
        {
          "internalType": "uint256",
          "name": "roomId",
          "type": "uint256"
        }
      ],
      "name": "autoRoll",
      "outputs": [],
      "stateMutability": "nonpayable",
      "type": "function"
    },
    {
      "inputs": [
        {
          "internalType": "uint256",
          "name": "_requiredParticipants",
          "type": "uint256"
        },
        {
          "internalType": "uint256",
          "name": "_stakeAmount",
          "type": "uint256"
        }
      ],
      "name": "createRoom",
      "outputs": [],
      "stateMutability": "nonpayable",
      "type": "function"
    },
    {
      "inputs": [
        {
          "internalType": "uint256",
          "name": "roomId",
          "type": "uint256"
        }
      ],
      "name": "getRoomInfo",
      "outputs": [
        {
          "internalType": "address",
          "name": "creator",
          "type": "address"
        },
        {
          "internalType": "uint256",
          "name": "requiredParticipants",
          "type": "uint256"
        },
        {
          "internalType": "uint256",
          "name": "maxParticipants",
          "type": "uint256"
        },
        {
          "internalType": "uint256",
          "name": "stakeAmount",
          "type": "uint256"
        },
        {
          "internalType": "bool",
          "name": "started",
          "type": "bool"
        },
        {
          "internalType": "uint256",
          "name": "gameStartTime",
          "type": "uint256"
        },
        {
          "internalType": "address",
          "name": "winner",
          "type": "address"
        }
      ],
      "stateMutability": "view",
      "type": "function"
    },
    {
      "inputs": [
        {
          "internalType": "uint256",
          "name": "roomId",
          "type": "uint256"
        }
      ],
      "name": "getRoomPlayers",
      "outputs": [
        {
          "internalType": "address[]",
          "name": "",
          "type": "address[]"
        }
      ],
      "stateMutability": "view",
      "type": "function"
    },
    {
      "inputs": [
        {
          "internalType": "uint256",
          "name": "roomId",
          "type": "uint256"
        },
        {
          "internalType": "address",
          "name": "player",
          "type": "address"
        }
      ],
      "name": "getUserInfo",
      "outputs": [
        {
          "internalType": "uint8",
          "name": "position",
          "type": "uint8"
        },
        {
          "internalType": "uint256",
          "name": "lastRoll",
          "type": "uint256"
        },
        {
          "internalType": "uint8",
          "name": "prasad",
          "type": "uint8"
        }
      ],
      "stateMutability": "view",
      "type": "function"
    },
    {
      "inputs": [],
      "name": "globalMaxParticipants",
      "outputs": [
        {
          "internalType": "uint256",
          "name": "",
          "type": "uint256"
        }
      ],
      "stateMutability": "view",
      "type": "function"
    },
    {
      "inputs": [
        {
          "internalType": "uint256",
          "name": "roomId",
          "type": "uint256"
        },
        {
          "internalType": "address",
          "name": "player",
          "type": "address"
        }
      ],
      "name": "hasJoined",
      "outputs": [
        {
          "internalType": "bool",
          "name": "",
          "type": "bool"
        }
      ],
      "stateMutability": "view",
      "type": "function"
    },
    {
      "inputs": [
        {
          "internalType": "uint256",
          "name": "roomId",
          "type": "uint256"
        }
      ],
      "name": "participate",
      "outputs": [],
      "stateMutability": "nonpayable",
      "type": "function"
    },
    {
      "inputs": [
        {
          "internalType": "uint256",
          "name": "roomId",
          "type": "uint256"
        }
      ],
      "name": "rollDice",
      "outputs": [],
      "stateMutability": "nonpayable",
      "type": "function"
    },
    {
      "inputs": [],
      "name": "roomCount",
      "outputs": [
        {
          "internalType": "uint256",
          "name": "",
          "type": "uint256"
        }
      ],
      "stateMutability": "view",
      "type": "function"
    },
    {
      "inputs": [
        {
          "internalType": "uint256",
          "name": "_newMaxParticipants",
          "type": "uint256"
        }
      ],
      "name": "setGlobalMaxParticipants",
      "outputs": [],
      "stateMutability": "nonpayable",
      "type": "function"
    },
    {
      "inputs": [],
      "name": "stakeToken",
      "outputs": [
        {
          "internalType": "contract IERC20",
          "name": "",
          "type": "address"
        }
      ],
      "stateMutability": "view",
      "type": "function"
    },
    {
      "inputs": [
        {
          "internalType": "uint256",
          "name": "roomId",
          "type": "uint256"
        },
        {
          "internalType": "address",
          "name": "player",
          "type": "address"
        },
        {
          "internalType": "uint8",
          "name": "activityWeight",
          "type": "uint8"
        }
      ],
      "name": "updatePrasadMeter",
      "outputs": [],
      "stateMutability": "nonpayable",
      "type": "function"
    }
  ],
  "bytecode": "0x608060405234801561001057600080fd5b5060405161305738038061305783398181016040528101906100329190610529565b33600360006101000a81548173ffffffffffffffffffffffffffffffffffffffff021916908373ffffffffffffffffffffffffffffffffffffffff16021790555080600560006101000a81548173ffffffffffffffffffffffffffffffffffffffff021916908373ffffffffffffffffffffffffffffffffffffffff16021790555060048081905550601560026000606360ff16815260200190815260200160002060006101000a81548160ff021916908360ff160217905550604b60026000605f60ff16815260200190815260200160002060006101000a81548160ff021916908360ff160217905550605860026000605c60ff16815260200190815260200160002060006101000a81548160ff021916908360ff160217905550604460026000605960ff16815260200190815260200160002060006101000a81548160ff021916908360ff160217905550603560026000604a60ff16815260200190815260200160002060006101000a81548160ff021916908360ff160217905550601360026000603e60ff16815260200190815260200160002060006101000a81548160ff021916908360ff160217905550603c60026000604060ff16815260200190815260200160002060006101000a81548160ff021916908360ff160217905550600b60026000603160ff16815260200190815260200160002060006101000a81548160ff021916908360ff160217905550601960026000602e60ff16815260200190815260200160002060006101000a81548160ff021916908360ff160217905550600660026000601060ff16815260200190815260200160002060006101000a81548160ff021916908360ff160217905550602660026000600260ff16815260200190815260200160002060006101000a81548160ff021916908360ff160217905550600e60026000600760ff16815260200190815260200160002060006101000a81548160ff021916908360ff160217905550601f60026000600860ff16815260200190815260200160002060006101000a81548160ff021916908360ff160217905550601a60026000600f60ff16815260200190815260200160002060006101000a81548160ff021916908360ff160217905550602a60026000601560ff16815260200190815260200160002060006101000a81548160ff021916908360ff160217905550605460026000601c60ff16815260200190815260200160002060006101000a81548160ff021916908360ff160217905550602c60026000602460ff16815260200190815260200160002060006101000a81548160ff021916908360ff160217905550604360026000603360ff16815260200190815260200160002060006101000a81548160ff021916908360ff160217905550605b60026000604760ff16815260200190815260200160002060006101000a81548160ff021916908360ff160217905550606260026000604e60ff16815260200190815260200160002060006101000a81548160ff021916908360ff160217905550605e60026000605760ff16815260200190815260200160002060006101000a81548160ff021916908360ff16021790555050610556565b600080fd5b600073ffffffffffffffffffffffffffffffffffffffff82169050919050565b60006104f6826104cb565b9050919050565b610506816104eb565b811461051157600080fd5b50565b600081519050610523816104fd565b92915050565b60006020828403121561053f5761053e6104c6565b5b600061054d84828501610514565b91505092915050565b612af2806105656000396000f3fe608060405234801561001057600080fd5b50600436106100cf5760003560e01c8063681947191161008c578063ab196acd11610066578063ab196acd1461022c578063acfff37714610248578063bf76c7b014610264578063df93a4e314610280576100cf565b806368194719146101c2578063845c9306146101f2578063a83812fd1461020e576100cf565b80630328f964146100d45780631069f3b5146100f05780632d7572a41461012257806343925cc31461013e57806351ed6a301461016e5780636790d2b51461018c575b600080fd5b6100ee60048036038101906100e99190611cc0565b61029e565b005b61010a60048036038101906101059190611d4b565b610388565b60405161011993929190611db6565b60405180910390f35b61013c60048036038101906101379190611e19565b61051e565b005b61015860048036038101906101539190611cc0565b6106cd565b6040516101659190611f2a565b60405180910390f35b610176610770565b6040516101839190611fab565b60405180910390f35b6101a660048036038101906101a19190611cc0565b610796565b6040516101b99796959493929190611ff0565b60405180910390f35b6101dc60048036038101906101d79190611d4b565b610840565b6040516101e9919061205f565b60405180910390f35b61020c60048036038101906102079190611cc0565b6108aa565b005b610216610c17565b604051610223919061207a565b60405180910390f35b61024660048036038101906102419190612095565b610c1d565b005b610262600480360381019061025d9190611cc0565b610f3b565b005b61027e60048036038101906102799190611cc0565b6114c5565b005b6102886119fb565b604051610295919061207a565b60405180910390f35b600360009054906101000a900473ffffffffffffffffffffffffffffffffffffffff1673ffffffffffffffffffffffffffffffffffffffff163373ffffffffffffffffffffffffffffffffffffffff161461032e576040517f08c379a000000000000000000000000000000000000000000000000000000000815260040161032590612132565b60405180910390fd5b60018111801561033f5750600a8111155b61037e576040517f08c379a0000000000000000000000000000000000000000000000000000000008152600401610375906121c4565b60405180910390fd5b8060048190555050565b60008060008060008087815260200190815260200160002090508060080160008673ffffffffffffffffffffffffffffffffffffffff1673ffffffffffffffffffffffffffffffffffffffff16815260200190815260200160002060009054906101000a900460ff16610430576040517f08c379a000000000000000000000000000000000000000000000000000000000815260040161042790612230565b60405180910390fd5b8060090160008673ffffffffffffffffffffffffffffffffffffffff1673ffffffffffffffffffffffffffffffffffffffff16815260200190815260200160002060009054906101000a900460ff1681600a0160008773ffffffffffffffffffffffffffffffffffffffff1673ffffffffffffffffffffffffffffffffffffffff1681526020019081526020016000205482600b0160008873ffffffffffffffffffffffffffffffffffffffff1673ffffffffffffffffffffffffffffffffffffffff16815260200190815260200160002060009054906101000a900460ff16935093509350509250925092565b600360009054906101000a900473ffffffffffffffffffffffffffffffffffffffff1673ffffffffffffffffffffffffffffffffffffffff163373ffffffffffffffffffffffffffffffffffffffff16146105ae576040517f08c379a00000000000000000000000000000000000000000000000000000000081526004016105a590612132565b60405180910390fd5b600080600085815260200190815260200160002090508060080160008473ffffffffffffffffffffffffffffffffffffffff1673ffffffffffffffffffffffffffffffffffffffff16815260200190815260200160002060009054906101000a900460ff16610652576040517f08c379a00000000000000000000000000000000000000000000000000000000081526004016106499061229c565b60405180910390fd5b8181600b0160008573ffffffffffffffffffffffffffffffffffffffff1673ffffffffffffffffffffffffffffffffffffffff16815260200190815260200160002060008282829054906101000a900460ff166106af91906122eb565b92506101000a81548160ff021916908360ff16021790555050505050565b606060008083815260200190815260200160002060070180548060200260200160405190810160405280929190818152602001828054801561076457602002820191906000526020600020905b8160009054906101000a900473ffffffffffffffffffffffffffffffffffffffff1673ffffffffffffffffffffffffffffffffffffffff168152602001906001019080831161071a575b50505050509050919050565b600560009054906101000a900473ffffffffffffffffffffffffffffffffffffffff1681565b6000806000806000806000806000808a815260200190815260200160002090508060010160009054906101000a900473ffffffffffffffffffffffffffffffffffffffff168160020154826003015483600401548460050160009054906101000a900460ff16856006015486600c0160009054906101000a900473ffffffffffffffffffffffffffffffffffffffff16975097509750975097509750975050919395979092949650565b600080600084815260200190815260200160002060080160008373ffffffffffffffffffffffffffffffffffffffff1673ffffffffffffffffffffffffffffffffffffffff16815260200190815260200160002060009054906101000a900460ff16905092915050565b600080600083815260200190815260200160002090508060050160009054906101000a900460ff1615610912576040517f08c379a00000000000000000000000000000000000000000000000000000000081526004016109099061236c565b60405180910390fd5b806003015481600701805490501061095f576040517f08c379a0000000000000000000000000000000000000000000000000000000008152600401610956906123d8565b60405180910390fd5b8060080160003373ffffffffffffffffffffffffffffffffffffffff1673ffffffffffffffffffffffffffffffffffffffff16815260200190815260200160002060009054906101000a900460ff16156109ee576040517f08c379a00000000000000000000000000000000000000000000000000000000081526004016109e590612444565b60405180910390fd5b610a4133308360040154600560009054906101000a900473ffffffffffffffffffffffffffffffffffffffff1673ffffffffffffffffffffffffffffffffffffffff16611a01909392919063ffffffff16565b80600701339080600181540180825580915050600190039060005260206000200160009091909190916101000a81548173ffffffffffffffffffffffffffffffffffffffff021916908373ffffffffffffffffffffffffffffffffffffffff16021790555060018160080160003373ffffffffffffffffffffffffffffffffffffffff1673ffffffffffffffffffffffffffffffffffffffff16815260200190815260200160002060006101000a81548160ff02191690831515021790555060018160090160003373ffffffffffffffffffffffffffffffffffffffff1673ffffffffffffffffffffffffffffffffffffffff16815260200190815260200160002060006101000a81548160ff021916908360ff160217905550600081600a0160003373ffffffffffffffffffffffffffffffffffffffff1673ffffffffffffffffffffffffffffffffffffffff16815260200190815260200160002081905550817f6850e1e5da04837e49d432a9f3fc202557ed03c0518544076fd82a2d2eec9b8233604051610bd29190612464565b60405180910390a28060020154816007018054905003610c135760018160050160006101000a81548160ff0219169083151502179055504281600601819055505b5050565b60045481565b600182118015610c2f57506004548211155b610c6e576040517f08c379a0000000000000000000000000000000000000000000000000000000008152600401610c65906124f1565b60405180910390fd5b60008111610cb1576040517f08c379a0000000000000000000000000000000000000000000000000000000008152600401610ca89061255d565b60405180910390fd5b610d00333083600560009054906101000a900473ffffffffffffffffffffffffffffffffffffffff1673ffffffffffffffffffffffffffffffffffffffff16611a01909392919063ffffffff16565b60016000815480929190610d139061257d565b91905055506000806000600154815260200190815260200160002090506001548160000181905550338160010160006101000a81548173ffffffffffffffffffffffffffffffffffffffff021916908373ffffffffffffffffffffffffffffffffffffffff160217905550828160020181905550600454816003018190555081816004018190555080600701339080600181540180825580915050600190039060005260206000200160009091909190916101000a81548173ffffffffffffffffffffffffffffffffffffffff021916908373ffffffffffffffffffffffffffffffffffffffff16021790555060018160080160003373ffffffffffffffffffffffffffffffffffffffff1673ffffffffffffffffffffffffffffffffffffffff16815260200190815260200160002060006101000a81548160ff02191690831515021790555060018160090160003373ffffffffffffffffffffffffffffffffffffffff1673ffffffffffffffffffffffffffffffffffffffff16815260200190815260200160002060006101000a81548160ff021916908360ff160217905550600081600a0160003373ffffffffffffffffffffffffffffffffffffffff1673ffffffffffffffffffffffffffffffffffffffff168152602001908152602001600020819055506001547fdeb4915464f2fab35f9ed95b8c2dc62a1af9edc45ebc42643517a7893e49bca833604051610f2e9190612464565b60405180910390a2505050565b600080600083815260200190815260200160002090508060050160009054906101000a900460ff16610fa2576040517f08c379a0000000000000000000000000000000000000000000000000000000008152600401610f9990612611565b60405180910390fd5b8060080160003373ffffffffffffffffffffffffffffffffffffffff1673ffffffffffffffffffffffffffffffffffffffff16815260200190815260200160002060009054906101000a900460ff16611030576040517f08c379a00000000000000000000000000000000000000000000000000000000081526004016110279061229c565b60405180910390fd5b600073ffffffffffffffffffffffffffffffffffffffff1681600c0160009054906101000a900473ffffffffffffffffffffffffffffffffffffffff1673ffffffffffffffffffffffffffffffffffffffff16146110c3576040517f08c379a00000000000000000000000000000000000000000000000000000000081526004016110ba9061267d565b60405180910390fd5b60006110ce82611a83565b90508082600a0160003373ffffffffffffffffffffffffffffffffffffffff1673ffffffffffffffffffffffffffffffffffffffff1681526020019081526020016000205410611153576040517f08c379a000000000000000000000000000000000000000000000000000000000815260040161114a906126e9565b60405180910390fd5b600060016006423360405160200161116c929190612772565b6040516020818303038152906040528051906020012060001c61118f91906127cd565b61119991906127fe565b90506000600a84600b0160003373ffffffffffffffffffffffffffffffffffffffff1673ffffffffffffffffffffffffffffffffffffffff16815260200190815260200160002060009054906101000a900460ff166111f89190612832565b90506000818361120891906122eb565b905060068160ff16111561121b57600690505b60068160ff160361127e57600060016006423360405160200161123f9291906128ba565b6040516020818303038152906040528051906020012060001c61126291906127cd565b61126c91906127fe565b9050808261127a91906122eb565b9150505b6000818660090160003373ffffffffffffffffffffffffffffffffffffffff1673ffffffffffffffffffffffffffffffffffffffff16815260200190815260200160002060009054906101000a900460ff166112da91906122eb565b905060648160ff1611156112ed57606490505b6112f681611afb565b9050808660090160003373ffffffffffffffffffffffffffffffffffffffff1673ffffffffffffffffffffffffffffffffffffffff16815260200190815260200160002060006101000a81548160ff021916908360ff16021790555060648160ff161061143c573386600c0160006101000a81548173ffffffffffffffffffffffffffffffffffffffff021916908373ffffffffffffffffffffffffffffffffffffffff16021790555061140333876007018054905088600401546113bb91906128f1565b600560009054906101000a900473ffffffffffffffffffffffffffffffffffffffff1673ffffffffffffffffffffffffffffffffffffffff16611b649092919063ffffffff16565b867f4dc08ce212d967a2959e5901a545b00fd4f86c108a0de62a8d906b7b0793c6d6336040516114339190612464565b60405180910390a25b8486600a0160003373ffffffffffffffffffffffffffffffffffffffff1673ffffffffffffffffffffffffffffffffffffffff16815260200190815260200160002081905550867f1701fdea8aa3a219ddfea8b4cf993f7828c6a5300030a17da093bafa0b3155d133846040516114b4929190612933565b60405180910390a250505050505050565b600080600083815260200190815260200160002090508060050160009054906101000a900460ff1661152c576040517f08c379a000000000000000000000000000000000000000000000000000000000815260040161152390612611565b60405180910390fd5b600073ffffffffffffffffffffffffffffffffffffffff1681600c0160009054906101000a900473ffffffffffffffffffffffffffffffffffffffff1673ffffffffffffffffffffffffffffffffffffffff16146115bf576040517f08c379a00000000000000000000000000000000000000000000000000000000081526004016115b69061267d565b60405180910390fd5b60006115ca82611a83565b905060005b82600701805490508110156119f45760008360070182815481106115f6576115f561295c565b5b9060005260206000200160009054906101000a900473ffffffffffffffffffffffffffffffffffffffff1690508284600a0160008373ffffffffffffffffffffffffffffffffffffffff1673ffffffffffffffffffffffffffffffffffffffff1681526020019081526020016000205410156119e6576000600160064284604051602001611685929190612772565b6040516020818303038152906040528051906020012060001c6116a891906127cd565b6116b291906127fe565b90506000600a86600b0160008573ffffffffffffffffffffffffffffffffffffffff1673ffffffffffffffffffffffffffffffffffffffff16815260200190815260200160002060009054906101000a900460ff166117119190612832565b90506000818361172191906122eb565b905060068160ff16111561173457600690505b60068160ff16036117975760006001600642876040516020016117589291906128ba565b6040516020818303038152906040528051906020012060001c61177b91906127cd565b61178591906127fe565b9050808261179391906122eb565b9150505b6000818860090160008773ffffffffffffffffffffffffffffffffffffffff1673ffffffffffffffffffffffffffffffffffffffff16815260200190815260200160002060009054906101000a900460ff166117f391906122eb565b905060648160ff16111561180657606490505b61180f81611afb565b9050808860090160008773ffffffffffffffffffffffffffffffffffffffff1673ffffffffffffffffffffffffffffffffffffffff16815260200190815260200160002060006101000a81548160ff021916908360ff16021790555060648160ff1610611961578488600c0160006101000a81548173ffffffffffffffffffffffffffffffffffffffff021916908373ffffffffffffffffffffffffffffffffffffffff16021790555061191c8589600701805490508a600401546118d491906128f1565b600560009054906101000a900473ffffffffffffffffffffffffffffffffffffffff1673ffffffffffffffffffffffffffffffffffffffff16611b649092919063ffffffff16565b887f4dc08ce212d967a2959e5901a545b00fd4f86c108a0de62a8d906b7b0793c6d68660405161194c9190612464565b60405180910390a250505050505050506119f8565b8688600a0160008773ffffffffffffffffffffffffffffffffffffffff1673ffffffffffffffffffffffffffffffffffffffff16815260200190815260200160002081905550887f1701fdea8aa3a219ddfea8b4cf993f7828c6a5300030a17da093bafa0b3155d186846040516119d9929190612933565b60405180910390a2505050505b5080806001019150506115cf565b5050505b50565b60015481565b611a7d848573ffffffffffffffffffffffffffffffffffffffff166323b872dd868686604051602401611a369392919061298b565b604051602081830303815290604052915060e01b6020820180517bffffffffffffffffffffffffffffffffffffffffffffffffffffffff8381831617835250505050611be3565b50505050565b60008160050160009054906101000a900460ff16611ad6576040517f08c379a0000000000000000000000000000000000000000000000000000000008152600401611acd90612a0e565b60405180910390fd5b62015180826006015442611aea9190612a2e565b611af49190612a62565b9050919050565b600080600260008460ff1660ff16815260200190815260200160002060009054906101000a900460ff1660ff1614611b5b57600260008360ff1660ff16815260200190815260200160002060009054906101000a900460ff169050611b5f565b8190505b919050565b611bde838473ffffffffffffffffffffffffffffffffffffffff1663a9059cbb8585604051602401611b97929190612a93565b604051602081830303815290604052915060e01b6020820180517bffffffffffffffffffffffffffffffffffffffffffffffffffffffff8381831617835250505050611be3565b505050565b600080602060008451602086016000885af180611c06576040513d6000823e3d81fd5b3d925060005191505060008214611c21576001811415611c3d565b60008473ffffffffffffffffffffffffffffffffffffffff163b145b15611c7f57836040517f5274afe7000000000000000000000000000000000000000000000000000000008152600401611c769190612464565b60405180910390fd5b50505050565b600080fd5b6000819050919050565b611c9d81611c8a565b8114611ca857600080fd5b50565b600081359050611cba81611c94565b92915050565b600060208284031215611cd657611cd5611c85565b5b6000611ce484828501611cab565b91505092915050565b600073ffffffffffffffffffffffffffffffffffffffff82169050919050565b6000611d1882611ced565b9050919050565b611d2881611d0d565b8114611d3357600080fd5b50565b600081359050611d4581611d1f565b92915050565b60008060408385031215611d6257611d61611c85565b5b6000611d7085828601611cab565b9250506020611d8185828601611d36565b9150509250929050565b600060ff82169050919050565b611da181611d8b565b82525050565b611db081611c8a565b82525050565b6000606082019050611dcb6000830186611d98565b611dd86020830185611da7565b611de56040830184611d98565b949350505050565b611df681611d8b565b8114611e0157600080fd5b50565b600081359050611e1381611ded565b92915050565b600080600060608486031215611e3257611e31611c85565b5b6000611e4086828701611cab565b9350506020611e5186828701611d36565b9250506040611e6286828701611e04565b9150509250925092565b600081519050919050565b600082825260208201905092915050565b6000819050602082019050919050565b611ea181611d0d565b82525050565b6000611eb38383611e98565b60208301905092915050565b6000602082019050919050565b6000611ed782611e6c565b611ee18185611e77565b9350611eec83611e88565b8060005b83811015611f1d578151611f048882611ea7565b9750611f0f83611ebf565b925050600181019050611ef0565b5085935050505092915050565b60006020820190508181036000830152611f448184611ecc565b905092915050565b6000819050919050565b6000611f71611f6c611f6784611ced565b611f4c565b611ced565b9050919050565b6000611f8382611f56565b9050919050565b6000611f9582611f78565b9050919050565b611fa581611f8a565b82525050565b6000602082019050611fc06000830184611f9c565b92915050565b611fcf81611d0d565b82525050565b60008115159050919050565b611fea81611fd5565b82525050565b600060e082019050612005600083018a611fc6565b6120126020830189611da7565b61201f6040830188611da7565b61202c6060830187611da7565b6120396080830186611fe1565b61204660a0830185611da7565b61205360c0830184611fc6565b98975050505050505050565b60006020820190506120746000830184611fe1565b92915050565b600060208201905061208f6000830184611da7565b92915050565b600080604083850312156120ac576120ab611c85565b5b60006120ba85828601611cab565b92505060206120cb85828601611cab565b9150509250929050565b600082825260208201905092915050565b7f4f6e6c79206f776e65722063616e2063616c6c20746869730000000000000000600082015250565b600061211c6018836120d5565b9150612127826120e6565b602082019050919050565b6000602082019050818103600083015261214b8161210f565b9050919050565b7f4d6178207061727469636970616e7473206d757374206265206265747765656e60008201527f203220616e642031300000000000000000000000000000000000000000000000602082015250565b60006121ae6029836120d5565b91506121b982612152565b604082019050919050565b600060208201905081810360008301526121dd816121a1565b9050919050565b7f506c61796572206e6f7420696e20726f6f6d0000000000000000000000000000600082015250565b600061221a6012836120d5565b9150612225826121e4565b602082019050919050565b600060208201905081810360008301526122498161220d565b9050919050565b7f4e6f74206a6f696e656400000000000000000000000000000000000000000000600082015250565b6000612286600a836120d5565b915061229182612250565b602082019050919050565b600060208201905081810360008301526122b581612279565b9050919050565b7f4e487b7100000000000000000000000000000000000000000000000000000000600052601160045260246000fd5b60006122f682611d8b565b915061230183611d8b565b9250828201905060ff81111561231a576123196122bc565b5b92915050565b7f47616d6520737461727465640000000000000000000000000000000000000000600082015250565b6000612356600c836120d5565b915061236182612320565b602082019050919050565b6000602082019050818103600083015261238581612349565b9050919050565b7f526f6f6d2066756c6c0000000000000000000000000000000000000000000000600082015250565b60006123c26009836120d5565b91506123cd8261238c565b602082019050919050565b600060208201905081810360008301526123f1816123b5565b9050919050565b7f416c7265616479206a6f696e6564000000000000000000000000000000000000600082015250565b600061242e600e836120d5565b9150612439826123f8565b602082019050919050565b6000602082019050818103600083015261245d81612421565b9050919050565b60006020820190506124796000830184611fc6565b92915050565b7f496e76616c6964207061727469636970616e7420636f756e7420666f7220637560008201527f7272656e7420676c6f62616c206d617800000000000000000000000000000000602082015250565b60006124db6030836120d5565b91506124e68261247f565b604082019050919050565b6000602082019050818103600083015261250a816124ce565b9050919050565b7f5374616b65207265717569726564000000000000000000000000000000000000600082015250565b6000612547600e836120d5565b915061255282612511565b602082019050919050565b600060208201905081810360008301526125768161253a565b9050919050565b600061258882611c8a565b91507fffffffffffffffffffffffffffffffffffffffffffffffffffffffffffffffff82036125ba576125b96122bc565b5b600182019050919050565b7f4e6f742073746172746564000000000000000000000000000000000000000000600082015250565b60006125fb600b836120d5565b9150612606826125c5565b602082019050919050565b6000602082019050818103600083015261262a816125ee565b9050919050565b7f47616d65206f7665720000000000000000000000000000000000000000000000600082015250565b60006126676009836120d5565b915061267282612631565b602082019050919050565b600060208201905081810360008301526126968161265a565b9050919050565b7f416c726561647920726f6c6c6564207468697320736c6f740000000000000000600082015250565b60006126d36018836120d5565b91506126de8261269d565b602082019050919050565b60006020820190508181036000830152612702816126c6565b9050919050565b6000819050919050565b61272461271f82611c8a565b612709565b82525050565b60008160601b9050919050565b60006127428261272a565b9050919050565b600061275482612737565b9050919050565b61276c61276782611d0d565b612749565b82525050565b600061277e8285612713565b60208201915061278e828461275b565b6014820191508190509392505050565b7f4e487b7100000000000000000000000000000000000000000000000000000000600052601260045260246000fd5b60006127d882611c8a565b91506127e383611c8a565b9250826127f3576127f261279e565b5b828206905092915050565b600061280982611c8a565b915061281483611c8a565b925082820190508082111561282c5761282b6122bc565b5b92915050565b600061283d82611d8b565b915061284883611d8b565b9250826128585761285761279e565b5b828204905092915050565b600081905092915050565b7f626f6e7573000000000000000000000000000000000000000000000000000000600082015250565b60006128a4600583612863565b91506128af8261286e565b600582019050919050565b60006128c68285612713565b6020820191506128d6828461275b565b6014820191506128e582612897565b91508190509392505050565b60006128fc82611c8a565b915061290783611c8a565b925082820261291581611c8a565b9150828204841483151761292c5761292b6122bc565b5b5092915050565b60006040820190506129486000830185611fc6565b6129556020830184611d98565b9392505050565b7f4e487b7100000000000000000000000000000000000000000000000000000000600052603260045260246000fd5b60006060820190506129a06000830186611fc6565b6129ad6020830185611fc6565b6129ba6040830184611da7565b949350505050565b7f47616d65206e6f74207374617274656400000000000000000000000000000000600082015250565b60006129f86010836120d5565b9150612a03826129c2565b602082019050919050565b60006020820190508181036000830152612a27816129eb565b9050919050565b6000612a3982611c8a565b9150612a4483611c8a565b9250828203905081811115612a5c57612a5b6122bc565b5b92915050565b6000612a6d82611c8a565b9150612a7883611c8a565b925082612a8857612a8761279e565b5b828204905092915050565b6000604082019050612aa86000830185611fc6565b612ab56020830184611da7565b939250505056fea2646970667358221220024fa01aa186e756747a1a5294a73be0f540d28355d9018038474cfc3bf38a7564736f6c634300081c0033",
  "linkReferences": {},
  "deployedLinkReferences": {}
}