{
  "_format": "hh-sol-artifact-1",
  "contractName": "SnakeGame",
  "sourceName": "contracts/SnakeLadderGame.sol",
  "abi": [
    {
      "inputs": [
        {
          "internalType": "address",
          "name": "_stakeToken",
          "type": "address"
        }
      ],
      "stateMutability": "nonpayable",
      "type": "constructor"
    },
    {
      "inputs": [
        {
          "internalType": "address",
          "name": "token",
          "type": "address"
        }
      ],
      "name": "SafeERC20FailedOperation",
      "type": "error"
    },
    {
      "anonymous": false,
      "inputs": [
        {
          "indexed": true,
          "internalType": "uint256",
          "name": "roomId",
          "type": "uint256"
        },
        {
          "indexed": false,
          "internalType": "address",
          "name": "player",
          "type": "address"
        },
        {
          "indexed": false,
          "internalType": "uint8",
          "name": "roll",
          "type": "uint8"
        }
      ],
      "name": "DiceRolled",
      "type": "event"
    },
    {
      "anonymous": false,
      "inputs": [
        {
          "indexed": true,
          "internalType": "uint256",
          "name": "roomId",
          "type": "uint256"
        },
        {
          "indexed": false,
          "internalType": "address",
          "name": "winner",
          "type": "address"
        }
      ],
      "name": "GameWon",
      "type": "event"
    },
    {
      "anonymous": false,
      "inputs": [
        {
          "indexed": true,
          "internalType": "address",
          "name": "player",
          "type": "address"
        },
        {
          "indexed": false,
          "internalType": "uint256",
          "name": "newWinCount",
          "type": "uint256"
        }
      ],
      "name": "LeaderboardUpdated",
      "type": "event"
    },
    {
      "anonymous": false,
      "inputs": [
        {
          "indexed": true,
          "internalType": "uint256",
          "name": "roomId",
          "type": "uint256"
        },
        {
          "indexed": false,
          "internalType": "address",
          "name": "player",
          "type": "address"
        }
      ],
      "name": "Participated",
      "type": "event"
    },
    {
      "anonymous": false,
      "inputs": [
        {
          "indexed": true,
          "internalType": "uint256",
          "name": "roomId",
          "type": "uint256"
        },
        {
          "indexed": false,
          "internalType": "address",
          "name": "creator",
          "type": "address"
        }
      ],
      "name": "RoomCreated",
      "type": "event"
    },
    {
      "inputs": [
        {
          "internalType": "uint256",
          "name": "roomId",
          "type": "uint256"
        }
      ],
      "name": "autoRoll",
      "outputs": [],
      "stateMutability": "nonpayable",
      "type": "function"
    },
    {
      "inputs": [
        {
          "internalType": "uint256",
          "name": "_requiredParticipants",
          "type": "uint256"
        },
        {
          "internalType": "uint256",
          "name": "_stakeAmount",
          "type": "uint256"
        },
        {
          "internalType": "string",
          "name": "_metadataUri",
          "type": "string"
        }
      ],
      "name": "createRoom",
      "outputs": [],
      "stateMutability": "nonpayable",
      "type": "function"
    },
    {
      "inputs": [
        {
          "internalType": "uint256",
          "name": "roomId",
          "type": "uint256"
        }
      ],
      "name": "extraRoll",
      "outputs": [
        {
          "internalType": "uint8",
          "name": "",
          "type": "uint8"
        }
      ],
      "stateMutability": "nonpayable",
      "type": "function"
    },
    {
      "inputs": [
        {
          "internalType": "uint256",
          "name": "roomId",
          "type": "uint256"
        }
      ],
      "name": "getCurrentPlayer",
      "outputs": [
        {
          "internalType": "address",
          "name": "",
          "type": "address"
        }
      ],
      "stateMutability": "view",
      "type": "function"
    },
    {
      "inputs": [],
      "name": "getCurrentRunningRoomId",
      "outputs": [
        {
          "internalType": "uint256",
          "name": "",
          "type": "uint256"
        }
      ],
      "stateMutability": "view",
      "type": "function"
    },
    {
      "inputs": [],
      "name": "getLastRoomId",
      "outputs": [
        {
          "internalType": "uint256",
          "name": "",
          "type": "uint256"
        }
      ],
      "stateMutability": "view",
      "type": "function"
    },
    {
      "inputs": [
        {
          "internalType": "address",
          "name": "player",
          "type": "address"
        }
      ],
      "name": "getLeaderboardStats",
      "outputs": [
        {
          "internalType": "uint256",
          "name": "",
          "type": "uint256"
        }
      ],
      "stateMutability": "view",
      "type": "function"
    },
    {
      "inputs": [
        {
          "internalType": "address",
          "name": "player",
          "type": "address"
        }
      ],
      "name": "getPlayerRank",
      "outputs": [
        {
          "internalType": "uint256",
          "name": "",
          "type": "uint256"
        }
      ],
      "stateMutability": "view",
      "type": "function"
    },
    {
      "inputs": [
        {
          "internalType": "uint256",
          "name": "roomId",
          "type": "uint256"
        }
      ],
      "name": "getRoomInfo",
      "outputs": [
        {
          "internalType": "address",
          "name": "creator",
          "type": "address"
        },
        {
          "internalType": "uint256",
          "name": "requiredParticipants",
          "type": "uint256"
        },
        {
          "internalType": "uint256",
          "name": "maxParticipants",
          "type": "uint256"
        },
        {
          "internalType": "uint256",
          "name": "stakeAmount",
          "type": "uint256"
        },
        {
          "internalType": "bool",
          "name": "started",
          "type": "bool"
        },
        {
          "internalType": "uint256",
          "name": "gameStartTime",
          "type": "uint256"
        },
        {
          "internalType": "address",
          "name": "winner",
          "type": "address"
        },
        {
          "internalType": "string",
          "name": "metadataUri",
          "type": "string"
        }
      ],
      "stateMutability": "view",
      "type": "function"
    },
    {
      "inputs": [
        {
          "internalType": "uint256",
          "name": "roomId",
          "type": "uint256"
        }
      ],
      "name": "getRoomPlayers",
      "outputs": [
        {
          "internalType": "address[]",
          "name": "",
          "type": "address[]"
        }
      ],
      "stateMutability": "view",
      "type": "function"
    },
    {
      "inputs": [
        {
          "internalType": "uint256",
          "name": "n",
          "type": "uint256"
        }
      ],
      "name": "getTopPlayers",
      "outputs": [
        {
          "internalType": "address[]",
          "name": "players",
          "type": "address[]"
        },
        {
          "internalType": "uint256[]",
          "name": "wins",
          "type": "uint256[]"
        }
      ],
      "stateMutability": "view",
      "type": "function"
    },
    {
      "inputs": [],
      "name": "getTotalLeaderboardPlayers",
      "outputs": [
        {
          "internalType": "uint256",
          "name": "",
          "type": "uint256"
        }
      ],
      "stateMutability": "view",
      "type": "function"
    },
    {
      "inputs": [
        {
          "internalType": "uint256",
          "name": "roomId",
          "type": "uint256"
        },
        {
          "internalType": "address",
          "name": "player",
          "type": "address"
        }
      ],
      "name": "getUserInfo",
      "outputs": [
        {
          "internalType": "uint8",
          "name": "lastPosition",
          "type": "uint8"
        },
        {
          "internalType": "uint8",
          "name": "currentPosition",
          "type": "uint8"
        },
        {
          "internalType": "bool",
          "name": "hasRolledSix",
          "type": "bool"
        },
        {
          "internalType": "uint256",
          "name": "lastRollSlot",
          "type": "uint256"
        },
        {
          "internalType": "uint8",
          "name": "lastRoll",
          "type": "uint8"
        },
        {
          "internalType": "uint8",
          "name": "prasad",
          "type": "uint8"
        }
      ],
      "stateMutability": "view",
      "type": "function"
    },
    {
      "inputs": [
        {
          "internalType": "address",
          "name": "player",
          "type": "address"
        }
      ],
      "name": "getUserRooms",
      "outputs": [
        {
          "internalType": "uint256[]",
          "name": "",
          "type": "uint256[]"
        }
      ],
      "stateMutability": "view",
      "type": "function"
    },
    {
      "inputs": [
        {
          "internalType": "address",
          "name": "player",
          "type": "address"
        }
      ],
      "name": "getUserStats",
      "outputs": [
        {
          "internalType": "uint256",
          "name": "totalGames",
          "type": "uint256"
        },
        {
          "internalType": "uint256",
          "name": "totalWins",
          "type": "uint256"
        },
        {
          "internalType": "uint256",
          "name": "rank",
          "type": "uint256"
        }
      ],
      "stateMutability": "view",
      "type": "function"
    },
    {
      "inputs": [],
      "name": "globalMaxParticipants",
      "outputs": [
        {
          "internalType": "uint256",
          "name": "",
          "type": "uint256"
        }
      ],
      "stateMutability": "view",
      "type": "function"
    },
    {
      "inputs": [
        {
          "internalType": "uint256",
          "name": "roomId",
          "type": "uint256"
        },
        {
          "internalType": "address",
          "name": "player",
          "type": "address"
        }
      ],
      "name": "hasJoined",
      "outputs": [
        {
          "internalType": "bool",
          "name": "",
          "type": "bool"
        }
      ],
      "stateMutability": "view",
      "type": "function"
    },
    {
      "inputs": [
        {
          "internalType": "address",
          "name": "",
          "type": "address"
        }
      ],
      "name": "leaderboard",
      "outputs": [
        {
          "internalType": "uint256",
          "name": "",
          "type": "uint256"
        }
      ],
      "stateMutability": "view",
      "type": "function"
    },
    {
      "inputs": [
        {
          "internalType": "uint256",
          "name": "roomId",
          "type": "uint256"
        }
      ],
      "name": "participate",
      "outputs": [],
      "stateMutability": "nonpayable",
      "type": "function"
    },
    {
      "inputs": [
        {
          "internalType": "uint256",
          "name": "roomId",
          "type": "uint256"
        }
      ],
      "name": "rollDice",
      "outputs": [
        {
          "internalType": "uint8",
          "name": "",
          "type": "uint8"
        }
      ],
      "stateMutability": "nonpayable",
      "type": "function"
    },
    {
      "inputs": [],
      "name": "roomCount",
      "outputs": [
        {
          "internalType": "uint256",
          "name": "",
          "type": "uint256"
        }
      ],
      "stateMutability": "view",
      "type": "function"
    },
    {
      "inputs": [
        {
          "internalType": "uint256",
          "name": "_newMaxParticipants",
          "type": "uint256"
        }
      ],
      "name": "setGlobalMaxParticipants",
      "outputs": [],
      "stateMutability": "nonpayable",
      "type": "function"
    },
    {
      "inputs": [],
      "name": "stakeToken",
      "outputs": [
        {
          "internalType": "contract IERC20",
          "name": "",
          "type": "address"
        }
      ],
      "stateMutability": "view",
      "type": "function"
    },
    {
      "inputs": [
        {
          "internalType": "uint256",
          "name": "roomId",
          "type": "uint256"
        },
        {
          "internalType": "address",
          "name": "player",
          "type": "address"
        },
        {
          "internalType": "uint8",
          "name": "activityWeight",
          "type": "uint8"
        }
      ],
      "name": "updatePrasadMeter",
      "outputs": [],
      "stateMutability": "nonpayable",
      "type": "function"
    }
  ],
  "bytecode": "0x608060405234801561001057600080fd5b50604051615cca380380615cca8339818101604052810190610032919061052a565b33600560006101000a81548173ffffffffffffffffffffffffffffffffffffffff021916908373ffffffffffffffffffffffffffffffffffffffff16021790555080600760006101000a81548173ffffffffffffffffffffffffffffffffffffffff021916908373ffffffffffffffffffffffffffffffffffffffff1602179055506004600681905550602960046000606360ff16815260200190815260200160002060006101000a81548160ff021916908360ff160217905550604b60046000605f60ff16815260200190815260200160002060006101000a81548160ff021916908360ff160217905550605860046000605c60ff16815260200190815260200160002060006101000a81548160ff021916908360ff160217905550604460046000605960ff16815260200190815260200160002060006101000a81548160ff021916908360ff160217905550603560046000604a60ff16815260200190815260200160002060006101000a81548160ff021916908360ff160217905550601860046000603e60ff16815260200190815260200160002060006101000a81548160ff021916908360ff160217905550601460046000604060ff16815260200190815260200160002060006101000a81548160ff021916908360ff160217905550600b60046000603160ff16815260200190815260200160002060006101000a81548160ff021916908360ff160217905550601960046000602e60ff16815260200190815260200160002060006101000a81548160ff021916908360ff160217905550600660046000601060ff16815260200190815260200160002060006101000a81548160ff021916908360ff160217905550602660046000600260ff16815260200190815260200160002060006101000a81548160ff021916908360ff160217905550600e60046000600760ff16815260200190815260200160002060006101000a81548160ff021916908360ff160217905550601f60046000600860ff16815260200190815260200160002060006101000a81548160ff021916908360ff160217905550601a60046000600f60ff16815260200190815260200160002060006101000a81548160ff021916908360ff160217905550602a60046000601560ff16815260200190815260200160002060006101000a81548160ff021916908360ff160217905550605460046000601c60ff16815260200190815260200160002060006101000a81548160ff021916908360ff160217905550602c60046000602460ff16815260200190815260200160002060006101000a81548160ff021916908360ff160217905550604360046000603360ff16815260200190815260200160002060006101000a81548160ff021916908360ff160217905550605b60046000604760ff16815260200190815260200160002060006101000a81548160ff021916908360ff160217905550606260046000604e60ff16815260200190815260200160002060006101000a81548160ff021916908360ff160217905550605e60046000605760ff16815260200190815260200160002060006101000a81548160ff021916908360ff16021790555050610557565b600080fd5b600073ffffffffffffffffffffffffffffffffffffffff82169050919050565b60006104f7826104cc565b9050919050565b610507816104ec565b811461051257600080fd5b50565b600081519050610524816104fe565b92915050565b6000602082840312156105405761053f6104c7565b5b600061054e84828501610515565b91505092915050565b615764806105666000396000f3fe608060405234801561001057600080fd5b50600436106101585760003560e01c8063845c9306116100c3578063bf76c7b01161007c578063bf76c7b014610434578063c1c33bfa14610450578063d1d33d201461046e578063df93a4e31461049e578063ea16fb78146104bc578063eca87ec1146104ec57610158565b8063845c930614610339578063a697cb0e14610355578063a83812fd14610385578063acfff377146103a3578063b01e7961146103d3578063ba3c00671461040357610158565b806343925cc31161011557806343925cc3146102365780634e43603a1461026657806351ed6a30146102985780636790d2b5146102b657806368194719146102ed57806380f568401461031d57610158565b80630328f9641461015d5780630e0e0415146101795780631069f3b514610197578063158b6c55146101cc57806326638631146101ea5780632d7572a41461021a575b600080fd5b61017760048036038101906101729190614083565b61051c565b005b610181610606565b60405161018e91906140bf565b60405180910390f35b6101b160048036038101906101ac9190614138565b610613565b6040516101c3969594939291906141af565b60405180910390f35b6101d46108a4565b6040516101e191906140bf565b60405180910390f35b61020460048036038101906101ff9190614083565b610965565b604051610211919061421f565b60405180910390f35b610234600480360381019061022f9190614266565b6109c9565b005b610250600480360381019061024b9190614083565b610b78565b60405161025d9190614377565b60405180910390f35b610280600480360381019061027b9190614399565b610c1b565b60405161028f939291906143c6565b60405180910390f35b6102a0610df2565b6040516102ad919061445c565b60405180910390f35b6102d060048036038101906102cb9190614083565b610e18565b6040516102e4989796959493929190614507565b60405180910390f35b61030760048036038101906103029190614138565b610f57565b604051610314919061458c565b60405180910390f35b610337600480360381019061033291906146dc565b610fc1565b005b610353600480360381019061034e9190614083565b61147c565b005b61036f600480360381019061036a9190614399565b61192d565b60405161037c91906140bf565b60405180910390f35b61038d611abd565b60405161039a91906140bf565b60405180910390f35b6103bd60048036038101906103b89190614083565b611ac3565b6040516103ca919061474b565b60405180910390f35b6103ed60048036038101906103e89190614399565b6124a8565b6040516103fa9190614824565b60405180910390f35b61041d60048036038101906104189190614083565b61253f565b60405161042b929190614846565b60405180910390f35b61044e60048036038101906104499190614083565b612986565b005b6104586134ee565b60405161046591906140bf565b60405180910390f35b61048860048036038101906104839190614399565b6134f8565b60405161049591906140bf565b60405180910390f35b6104a6613510565b6040516104b391906140bf565b60405180910390f35b6104d660048036038101906104d19190614399565b613516565b6040516104e391906140bf565b60405180910390f35b61050660048036038101906105019190614083565b61355f565b604051610513919061474b565b60405180910390f35b600560009054906101000a900473ffffffffffffffffffffffffffffffffffffffff1673ffffffffffffffffffffffffffffffffffffffff163373ffffffffffffffffffffffffffffffffffffffff16146105ac576040517f08c379a00000000000000000000000000000000000000000000000000000000081526004016105a3906148c9565b60405180910390fd5b6001811180156105bd5750600a8111155b6105fc576040517f08c379a00000000000000000000000000000000000000000000000000000000081526004016105f39061495b565b60405180910390fd5b8060068190555050565b6000600380549050905090565b60008060008060008060008060008a815260200190815260200160002090508060080160008973ffffffffffffffffffffffffffffffffffffffff1673ffffffffffffffffffffffffffffffffffffffff16815260200190815260200160002060009054906101000a900460ff166106c0576040517f08c379a00000000000000000000000000000000000000000000000000000000081526004016106b7906149c7565b60405180910390fd5b80600c0160008973ffffffffffffffffffffffffffffffffffffffff1673ffffffffffffffffffffffffffffffffffffffff16815260200190815260200160002060009054906101000a900460ff168160090160008a73ffffffffffffffffffffffffffffffffffffffff1673ffffffffffffffffffffffffffffffffffffffff16815260200190815260200160002060009054906101000a900460ff168260110160008b73ffffffffffffffffffffffffffffffffffffffff1673ffffffffffffffffffffffffffffffffffffffff16815260200190815260200160002060009054906101000a900460ff1683600a0160008c73ffffffffffffffffffffffffffffffffffffffff1673ffffffffffffffffffffffffffffffffffffffff1681526020019081526020016000205484600d0160008d73ffffffffffffffffffffffffffffffffffffffff1673ffffffffffffffffffffffffffffffffffffffff16815260200190815260200160002060009054906101000a900460ff1685600b0160008e73ffffffffffffffffffffffffffffffffffffffff1673ffffffffffffffffffffffffffffffffffffffff16815260200190815260200160002060009054906101000a900460ff16965096509650965096509650509295509295509295565b60008060015490505b6001811061095c57600080600083815260200190815260200160002090508060050160009054906101000a900460ff1680156109395750600073ffffffffffffffffffffffffffffffffffffffff1681600f0160009054906101000a900473ffffffffffffffffffffffffffffffffffffffff1673ffffffffffffffffffffffffffffffffffffffff16145b15610948578192505050610962565b50808061095490614a16565b9150506108ad565b50600090505b90565b60008060008084815260200190815260200160002090508060070181600e01548154811061099657610995614a3f565b5b9060005260206000200160009054906101000a900473ffffffffffffffffffffffffffffffffffffffff16915050919050565b600560009054906101000a900473ffffffffffffffffffffffffffffffffffffffff1673ffffffffffffffffffffffffffffffffffffffff163373ffffffffffffffffffffffffffffffffffffffff1614610a59576040517f08c379a0000000000000000000000000000000000000000000000000000000008152600401610a50906148c9565b60405180910390fd5b600080600085815260200190815260200160002090508060080160008473ffffffffffffffffffffffffffffffffffffffff1673ffffffffffffffffffffffffffffffffffffffff16815260200190815260200160002060009054906101000a900460ff16610afd576040517f08c379a0000000000000000000000000000000000000000000000000000000008152600401610af490614aba565b60405180910390fd5b8181600b0160008573ffffffffffffffffffffffffffffffffffffffff1673ffffffffffffffffffffffffffffffffffffffff16815260200190815260200160002060008282829054906101000a900460ff16610b5a9190614ada565b92506101000a81548160ff021916908360ff16021790555050505050565b6060600080838152602001908152602001600020600701805480602002602001604051908101604052809291908181526020018280548015610c0f57602002820191906000526020600020905b8160009054906101000a900473ffffffffffffffffffffffffffffffffffffffff1673ffffffffffffffffffffffffffffffffffffffff1681526020019060010190808311610bc5575b50505050509050919050565b6000806000600860008573ffffffffffffffffffffffffffffffffffffffff1673ffffffffffffffffffffffffffffffffffffffff168152602001908152602001600020805490509250600260008573ffffffffffffffffffffffffffffffffffffffff1673ffffffffffffffffffffffffffffffffffffffff168152602001908152602001600020549150600082905060008103610cbd5760009150610dea565b6001915060005b600380549050811015610de8578573ffffffffffffffffffffffffffffffffffffffff1660038281548110610cfc57610cfb614a3f565b5b9060005260206000200160009054906101000a900473ffffffffffffffffffffffffffffffffffffffff1673ffffffffffffffffffffffffffffffffffffffff1614158015610dc75750816002600060038481548110610d5f57610d5e614a3f565b5b9060005260206000200160009054906101000a900473ffffffffffffffffffffffffffffffffffffffff1673ffffffffffffffffffffffffffffffffffffffff1673ffffffffffffffffffffffffffffffffffffffff16815260200190815260200160002054115b15610ddb578280610dd790614b0f565b9350505b8080600101915050610cc4565b505b509193909250565b600760009054906101000a900473ffffffffffffffffffffffffffffffffffffffff1681565b6000806000806000806000606060008060008b815260200190815260200160002090508060010160009054906101000a900473ffffffffffffffffffffffffffffffffffffffff168160020154826003015483600401548460050160009054906101000a900460ff16856006015486600f0160009054906101000a900473ffffffffffffffffffffffffffffffffffffffff1687601001808054610ebb90614b86565b80601f0160208091040260200160405190810160405280929190818152602001828054610ee790614b86565b8015610f345780601f10610f0957610100808354040283529160200191610f34565b820191906000526020600020905b815481529060010190602001808311610f1757829003601f168201915b505050505090509850985098509850985098509850985050919395975091939597565b600080600084815260200190815260200160002060080160008373ffffffffffffffffffffffffffffffffffffffff1673ffffffffffffffffffffffffffffffffffffffff16815260200190815260200160002060009054906101000a900460ff16905092915050565b600183118015610fd357506006548311155b611012576040517f08c379a000000000000000000000000000000000000000000000000000000000815260040161100990614c29565b60405180910390fd5b60008211611055576040517f08c379a000000000000000000000000000000000000000000000000000000000815260040161104c90614c95565b60405180910390fd5b6000815111611099576040517f08c379a000000000000000000000000000000000000000000000000000000000815260040161109090614d01565b60405180910390fd5b6110e8333084600760009054906101000a900473ffffffffffffffffffffffffffffffffffffffff1673ffffffffffffffffffffffffffffffffffffffff16613dc3909392919063ffffffff16565b600160008154809291906110fb90614b0f565b91905055506000806000600154815260200190815260200160002090506001548160000181905550338160010160006101000a81548173ffffffffffffffffffffffffffffffffffffffff021916908373ffffffffffffffffffffffffffffffffffffffff1602179055508381600201819055506006548160030181905550828160040181905550818160100190816111949190614ec3565b5080600701339080600181540180825580915050600190039060005260206000200160009091909190916101000a81548173ffffffffffffffffffffffffffffffffffffffff021916908373ffffffffffffffffffffffffffffffffffffffff16021790555060018160080160003373ffffffffffffffffffffffffffffffffffffffff1673ffffffffffffffffffffffffffffffffffffffff16815260200190815260200160002060006101000a81548160ff02191690831515021790555060018160090160003373ffffffffffffffffffffffffffffffffffffffff1673ffffffffffffffffffffffffffffffffffffffff16815260200190815260200160002060006101000a81548160ff021916908360ff1602179055507fffffffffffffffffffffffffffffffffffffffffffffffffffffffffffffffff81600a0160003373ffffffffffffffffffffffffffffffffffffffff1673ffffffffffffffffffffffffffffffffffffffff16815260200190815260200160002081905550600181600c0160003373ffffffffffffffffffffffffffffffffffffffff1673ffffffffffffffffffffffffffffffffffffffff16815260200190815260200160002060006101000a81548160ff021916908360ff160217905550600081600e018190555060008160110160003373ffffffffffffffffffffffffffffffffffffffff1673ffffffffffffffffffffffffffffffffffffffff16815260200190815260200160002060006101000a81548160ff021916908315150217905550600860003373ffffffffffffffffffffffffffffffffffffffff1673ffffffffffffffffffffffffffffffffffffffff16815260200190815260200160002060015490806001815401808255809150506001900390600052602060002001600090919091909150556001547fdeb4915464f2fab35f9ed95b8c2dc62a1af9edc45ebc42643517a7893e49bca83360405161146e919061421f565b60405180910390a250505050565b600080600083815260200190815260200160002090508060050160009054906101000a900460ff16156114e4576040517f08c379a00000000000000000000000000000000000000000000000000000000081526004016114db90614fe1565b60405180910390fd5b8060030154816007018054905010611531576040517f08c379a00000000000000000000000000000000000000000000000000000000081526004016115289061504d565b60405180910390fd5b8060080160003373ffffffffffffffffffffffffffffffffffffffff1673ffffffffffffffffffffffffffffffffffffffff16815260200190815260200160002060009054906101000a900460ff16156115c0576040517f08c379a00000000000000000000000000000000000000000000000000000000081526004016115b7906150b9565b60405180910390fd5b61161333308360040154600760009054906101000a900473ffffffffffffffffffffffffffffffffffffffff1673ffffffffffffffffffffffffffffffffffffffff16613dc3909392919063ffffffff16565b80600701339080600181540180825580915050600190039060005260206000200160009091909190916101000a81548173ffffffffffffffffffffffffffffffffffffffff021916908373ffffffffffffffffffffffffffffffffffffffff16021790555060018160080160003373ffffffffffffffffffffffffffffffffffffffff1673ffffffffffffffffffffffffffffffffffffffff16815260200190815260200160002060006101000a81548160ff02191690831515021790555060018160090160003373ffffffffffffffffffffffffffffffffffffffff1673ffffffffffffffffffffffffffffffffffffffff16815260200190815260200160002060006101000a81548160ff021916908360ff1602179055507fffffffffffffffffffffffffffffffffffffffffffffffffffffffffffffffff81600a0160003373ffffffffffffffffffffffffffffffffffffffff1673ffffffffffffffffffffffffffffffffffffffff16815260200190815260200160002081905550600181600c0160003373ffffffffffffffffffffffffffffffffffffffff1673ffffffffffffffffffffffffffffffffffffffff16815260200190815260200160002060006101000a81548160ff021916908360ff16021790555060008160110160003373ffffffffffffffffffffffffffffffffffffffff1673ffffffffffffffffffffffffffffffffffffffff16815260200190815260200160002060006101000a81548160ff021916908315150217905550600860003373ffffffffffffffffffffffffffffffffffffffff1673ffffffffffffffffffffffffffffffffffffffff168152602001908152602001600020829080600181540180825580915050600190039060005260206000200160009091909190915055817f6850e1e5da04837e49d432a9f3fc202557ed03c0518544076fd82a2d2eec9b82336040516118de919061421f565b60405180910390a280600201548160070180549050036119295760018160050160006101000a81548160ff021916908315150217905550428160060181905550600081600e01819055505b5050565b600080600260008473ffffffffffffffffffffffffffffffffffffffff1673ffffffffffffffffffffffffffffffffffffffff16815260200190815260200160002054905060008103611984576000915050611ab8565b60006001905060005b600380549050811015611ab1578473ffffffffffffffffffffffffffffffffffffffff16600382815481106119c5576119c4614a3f565b5b9060005260206000200160009054906101000a900473ffffffffffffffffffffffffffffffffffffffff1673ffffffffffffffffffffffffffffffffffffffff1614158015611a905750826002600060038481548110611a2857611a27614a3f565b5b9060005260206000200160009054906101000a900473ffffffffffffffffffffffffffffffffffffffff1673ffffffffffffffffffffffffffffffffffffffff1673ffffffffffffffffffffffffffffffffffffffff16815260200190815260200160002054115b15611aa4578180611aa090614b0f565b9250505b808060010191505061198d565b5080925050505b919050565b60065481565b60008060008084815260200190815260200160002090508060050160009054906101000a900460ff16611b2b576040517f08c379a0000000000000000000000000000000000000000000000000000000008152600401611b2290615125565b60405180910390fd5b8060080160003373ffffffffffffffffffffffffffffffffffffffff1673ffffffffffffffffffffffffffffffffffffffff16815260200190815260200160002060009054906101000a900460ff16611bb9576040517f08c379a0000000000000000000000000000000000000000000000000000000008152600401611bb090614aba565b60405180910390fd5b8060070181600e015481548110611bd357611bd2614a3f565b5b9060005260206000200160009054906101000a900473ffffffffffffffffffffffffffffffffffffffff1673ffffffffffffffffffffffffffffffffffffffff163373ffffffffffffffffffffffffffffffffffffffff1614611c6b576040517f08c379a0000000000000000000000000000000000000000000000000000000008152600401611c6290615191565b60405180910390fd5b600073ffffffffffffffffffffffffffffffffffffffff1681600f0160009054906101000a900473ffffffffffffffffffffffffffffffffffffffff1673ffffffffffffffffffffffffffffffffffffffff1614611cfe576040517f08c379a0000000000000000000000000000000000000000000000000000000008152600401611cf5906151fd565b60405180910390fd5b8060110160003373ffffffffffffffffffffffffffffffffffffffff1673ffffffffffffffffffffffffffffffffffffffff16815260200190815260200160002060009054906101000a900460ff1615611d8d576040517f08c379a0000000000000000000000000000000000000000000000000000000008152600401611d8490615269565b60405180910390fd5b6000611d9882613e45565b90508082600a0160003373ffffffffffffffffffffffffffffffffffffffff1673ffffffffffffffffffffffffffffffffffffffff168152602001908152602001600020541080611e4957507fffffffffffffffffffffffffffffffffffffffffffffffffffffffffffffffff82600a0160003373ffffffffffffffffffffffffffffffffffffffff1673ffffffffffffffffffffffffffffffffffffffff16815260200190815260200160002054145b611e88576040517f08c379a0000000000000000000000000000000000000000000000000000000008152600401611e7f906152d5565b60405180910390fd5b6000600160064233604051602001611ea192919061535e565b6040516020818303038152906040528051906020012060001c611ec491906153b9565b611ece91906153ea565b90506000600a84600b0160003373ffffffffffffffffffffffffffffffffffffffff1673ffffffffffffffffffffffffffffffffffffffff16815260200190815260200160002060009054906101000a900460ff16611f2d919061541e565b905060008183611f3d9190614ada565b905060068160ff161115611f5057600690505b60008560090160003373ffffffffffffffffffffffffffffffffffffffff1673ffffffffffffffffffffffffffffffffffffffff16815260200190815260200160002060009054906101000a900460ff1690508086600c0160003373ffffffffffffffffffffffffffffffffffffffff1673ffffffffffffffffffffffffffffffffffffffff16815260200190815260200160002060006101000a81548160ff021916908360ff1602179055506000808360ff168360ff16612012919061545d565b905060648161ffff1611156120415760648161202e9190615493565b606461203a9190615493565b9150612045565b8091505b61204e82613eaf565b9150818860090160003373ffffffffffffffffffffffffffffffffffffffff1673ffffffffffffffffffffffffffffffffffffffff16815260200190815260200160002060006101000a81548160ff021916908360ff16021790555060648260ff1603612327573388600f0160006101000a81548173ffffffffffffffffffffffffffffffffffffffff021916908373ffffffffffffffffffffffffffffffffffffffff16021790555061215b3389600701805490508a6004015461211391906154c9565b600760009054906101000a900473ffffffffffffffffffffffffffffffffffffffff1673ffffffffffffffffffffffffffffffffffffffff16613f189092919063ffffffff16565b6000600260003373ffffffffffffffffffffffffffffffffffffffff1673ffffffffffffffffffffffffffffffffffffffff1681526020019081526020016000205403612206576003339080600181540180825580915050600190039060005260206000200160009091909190916101000a81548173ffffffffffffffffffffffffffffffffffffffff021916908373ffffffffffffffffffffffffffffffffffffffff1602179055505b6001600260003373ffffffffffffffffffffffffffffffffffffffff1673ffffffffffffffffffffffffffffffffffffffff168152602001908152602001600020600082825461225691906153ea565b92505081905550897f4dc08ce212d967a2959e5901a545b00fd4f86c108a0de62a8d906b7b0793c6d63360405161228d919061421f565b60405180910390a23373ffffffffffffffffffffffffffffffffffffffff167f24e225604268d6416871b32db1be8e49f497caf8360393b31d71a34a4ce26693600260003373ffffffffffffffffffffffffffffffffffffffff1673ffffffffffffffffffffffffffffffffffffffff1681526020019081526020016000205460405161231a91906140bf565b60405180910390a2612404565b60068460ff16036123915760018860110160003373ffffffffffffffffffffffffffffffffffffffff1673ffffffffffffffffffffffffffffffffffffffff16815260200190815260200160002060006101000a81548160ff021916908315150217905550612403565b8688600a0160003373ffffffffffffffffffffffffffffffffffffffff1673ffffffffffffffffffffffffffffffffffffffff168152602001908152602001600020819055508760070180549050600189600e01546123f091906153ea565b6123fa91906153b9565b88600e01819055505b5b8388600d0160003373ffffffffffffffffffffffffffffffffffffffff1673ffffffffffffffffffffffffffffffffffffffff16815260200190815260200160002060006101000a81548160ff021916908360ff160217905550897f1701fdea8aa3a219ddfea8b4cf993f7828c6a5300030a17da093bafa0b3155d1338660405161249092919061550b565b60405180910390a28398505050505050505050919050565b6060600860008373ffffffffffffffffffffffffffffffffffffffff1673ffffffffffffffffffffffffffffffffffffffff16815260200190815260200160002080548060200260200160405190810160405280929190818152602001828054801561253357602002820191906000526020600020905b81548152602001906001019080831161251f575b50505050509050919050565b6060806000600380549050905080841115612558578093505b8367ffffffffffffffff811115612572576125716145b1565b5b6040519080825280602002602001820160405280156125a05781602001602082028036833780820191505090505b5092508367ffffffffffffffff8111156125bd576125bc6145b1565b5b6040519080825280602002602001820160405280156125eb5781602001602082028036833780820191505090505b50915060008167ffffffffffffffff81111561260a576126096145b1565b5b6040519080825280602002602001820160405280156126385781602001602082028036833780820191505090505b50905060005b82811015612673578082828151811061265a57612659614a3f565b5b602002602001018181525050808060010191505061263e565b5060005b8581101561297e57600060018261268e91906153ea565b90505b83811015612851576002600060038584815181106126b2576126b1614a3f565b5b6020026020010151815481106126cb576126ca614a3f565b5b9060005260206000200160009054906101000a900473ffffffffffffffffffffffffffffffffffffffff1673ffffffffffffffffffffffffffffffffffffffff1673ffffffffffffffffffffffffffffffffffffffff1681526020019081526020016000205460026000600386868151811061274a57612749614a3f565b5b60200260200101518154811061276357612762614a3f565b5b9060005260206000200160009054906101000a900473ffffffffffffffffffffffffffffffffffffffff1673ffffffffffffffffffffffffffffffffffffffff1673ffffffffffffffffffffffffffffffffffffffff168152602001908152602001600020541015612844578281815181106127e2576127e1614a3f565b5b60200260200101518383815181106127fd576127fc614a3f565b5b602002602001015184848151811061281857612817614a3f565b5b6020026020010185848151811061283257612831614a3f565b5b60200260200101828152508281525050505b8080600101915050612691565b50600382828151811061286757612866614a3f565b5b6020026020010151815481106128805761287f614a3f565b5b9060005260206000200160009054906101000a900473ffffffffffffffffffffffffffffffffffffffff168582815181106128be576128bd614a3f565b5b602002602001019073ffffffffffffffffffffffffffffffffffffffff16908173ffffffffffffffffffffffffffffffffffffffff16815250506002600086838151811061290f5761290e614a3f565b5b602002602001015173ffffffffffffffffffffffffffffffffffffffff1673ffffffffffffffffffffffffffffffffffffffff1681526020019081526020016000205484828151811061296557612964614a3f565b5b6020026020010181815250508080600101915050612677565b505050915091565b600080600083815260200190815260200160002090508060050160009054906101000a900460ff166129ed576040517f08c379a00000000000000000000000000000000000000000000000000000000081526004016129e490615125565b60405180910390fd5b600073ffffffffffffffffffffffffffffffffffffffff1681600f0160009054906101000a900473ffffffffffffffffffffffffffffffffffffffff1673ffffffffffffffffffffffffffffffffffffffff1614612a80576040517f08c379a0000000000000000000000000000000000000000000000000000000008152600401612a77906151fd565b60405180910390fd5b6000612a8b82613e45565b905060005b82600701805490508110156134e7576000836007018281548110612ab757612ab6614a3f565b5b9060005260206000200160009054906101000a900473ffffffffffffffffffffffffffffffffffffffff1690508284600a0160008373ffffffffffffffffffffffffffffffffffffffff1673ffffffffffffffffffffffffffffffffffffffff1681526020019081526020016000205410156134d9576000600160064284604051602001612b4692919061535e565b6040516020818303038152906040528051906020012060001c612b6991906153b9565b612b7391906153ea565b90506000600a86600b0160008573ffffffffffffffffffffffffffffffffffffffff1673ffffffffffffffffffffffffffffffffffffffff16815260200190815260200160002060009054906101000a900460ff16612bd2919061541e565b905060008183612be29190614ada565b905060068160ff161115612bf557600690505b60008760090160008673ffffffffffffffffffffffffffffffffffffffff1673ffffffffffffffffffffffffffffffffffffffff16815260200190815260200160002060009054906101000a900460ff1690508088600c0160008773ffffffffffffffffffffffffffffffffffffffff1673ffffffffffffffffffffffffffffffffffffffff16815260200190815260200160002060006101000a81548160ff021916908360ff1602179055506000808360ff168360ff16612cb7919061545d565b905060648161ffff161115612ce657606481612cd39190615493565b6064612cdf9190615493565b9150612cea565b8091505b612cf382613eaf565b9150818a60090160008973ffffffffffffffffffffffffffffffffffffffff1673ffffffffffffffffffffffffffffffffffffffff16815260200190815260200160002060006101000a81548160ff021916908360ff1602179055508a7f1701fdea8aa3a219ddfea8b4cf993f7828c6a5300030a17da093bafa0b3155d18886604051612d8192919061550b565b60405180910390a260648260ff160361301057868a600f0160006101000a81548173ffffffffffffffffffffffffffffffffffffffff021916908373ffffffffffffffffffffffffffffffffffffffff160217905550612e3a878b600701805490508c60040154612df291906154c9565b600760009054906101000a900473ffffffffffffffffffffffffffffffffffffffff1673ffffffffffffffffffffffffffffffffffffffff16613f189092919063ffffffff16565b6000600260008973ffffffffffffffffffffffffffffffffffffffff1673ffffffffffffffffffffffffffffffffffffffff1681526020019081526020016000205403612ee5576003879080600181540180825580915050600190039060005260206000200160009091909190916101000a81548173ffffffffffffffffffffffffffffffffffffffff021916908373ffffffffffffffffffffffffffffffffffffffff1602179055505b6001600260008973ffffffffffffffffffffffffffffffffffffffff1673ffffffffffffffffffffffffffffffffffffffff1681526020019081526020016000206000828254612f3591906153ea565b925050819055508a7f4dc08ce212d967a2959e5901a545b00fd4f86c108a0de62a8d906b7b0793c6d688604051612f6c919061421f565b60405180910390a28673ffffffffffffffffffffffffffffffffffffffff167f24e225604268d6416871b32db1be8e49f497caf8360393b31d71a34a4ce26693600260008a73ffffffffffffffffffffffffffffffffffffffff1673ffffffffffffffffffffffffffffffffffffffff16815260200190815260200160002054604051612ff991906140bf565b60405180910390a2505050505050505050506134eb565b60068460ff160361343257600060016006428a60405160200161303492919061558b565b6040516020818303038152906040528051906020012060001c61305791906153b9565b61306191906153ea565b9050829350838b600c0160008a73ffffffffffffffffffffffffffffffffffffffff1673ffffffffffffffffffffffffffffffffffffffff16815260200190815260200160002060006101000a81548160ff021916908360ff16021790555060008160ff168560ff166130d4919061545d565b905060648161ffff161115613103576064816130f09190615493565b60646130fc9190615493565b9350613107565b8093505b61311084613eaf565b9350838c60090160008b73ffffffffffffffffffffffffffffffffffffffff1673ffffffffffffffffffffffffffffffffffffffff16815260200190815260200160002060006101000a81548160ff021916908360ff1602179055508c7f1701fdea8aa3a219ddfea8b4cf993f7828c6a5300030a17da093bafa0b3155d18a8460405161319e92919061550b565b60405180910390a260648460ff160361342f57888c600f0160006101000a81548173ffffffffffffffffffffffffffffffffffffffff021916908373ffffffffffffffffffffffffffffffffffffffff160217905550613257898d600701805490508e6004015461320f91906154c9565b600760009054906101000a900473ffffffffffffffffffffffffffffffffffffffff1673ffffffffffffffffffffffffffffffffffffffff16613f189092919063ffffffff16565b6000600260008b73ffffffffffffffffffffffffffffffffffffffff1673ffffffffffffffffffffffffffffffffffffffff1681526020019081526020016000205403613302576003899080600181540180825580915050600190039060005260206000200160009091909190916101000a81548173ffffffffffffffffffffffffffffffffffffffff021916908373ffffffffffffffffffffffffffffffffffffffff1602179055505b6001600260008b73ffffffffffffffffffffffffffffffffffffffff1673ffffffffffffffffffffffffffffffffffffffff168152602001908152602001600020600082825461335291906153ea565b925050819055508c7f4dc08ce212d967a2959e5901a545b00fd4f86c108a0de62a8d906b7b0793c6d68a604051613389919061421f565b60405180910390a28873ffffffffffffffffffffffffffffffffffffffff167f24e225604268d6416871b32db1be8e49f497caf8360393b31d71a34a4ce26693600260008c73ffffffffffffffffffffffffffffffffffffffff1673ffffffffffffffffffffffffffffffffffffffff1681526020019081526020016000205460405161341691906140bf565b60405180910390a25050505050505050505050506134eb565b50505b838a600d0160008973ffffffffffffffffffffffffffffffffffffffff1673ffffffffffffffffffffffffffffffffffffffff16815260200190815260200160002060006101000a81548160ff021916908360ff160217905550888a600a0160008973ffffffffffffffffffffffffffffffffffffffff1673ffffffffffffffffffffffffffffffffffffffff168152602001908152602001600020819055505050505050505b508080600101915050612a90565b5050505b50565b6000600154905090565b60026020528060005260406000206000915090505481565b60015481565b6000600260008373ffffffffffffffffffffffffffffffffffffffff1673ffffffffffffffffffffffffffffffffffffffff168152602001908152602001600020549050919050565b60008060008084815260200190815260200160002090508060050160009054906101000a900460ff166135c7576040517f08c379a00000000000000000000000000000000000000000000000000000000081526004016135be90615125565b60405180910390fd5b8060080160003373ffffffffffffffffffffffffffffffffffffffff1673ffffffffffffffffffffffffffffffffffffffff16815260200190815260200160002060009054906101000a900460ff16613655576040517f08c379a000000000000000000000000000000000000000000000000000000000815260040161364c90614aba565b60405180910390fd5b600073ffffffffffffffffffffffffffffffffffffffff1681600f0160009054906101000a900473ffffffffffffffffffffffffffffffffffffffff1673ffffffffffffffffffffffffffffffffffffffff16146136e8576040517f08c379a00000000000000000000000000000000000000000000000000000000081526004016136df906151fd565b60405180910390fd5b8060110160003373ffffffffffffffffffffffffffffffffffffffff1673ffffffffffffffffffffffffffffffffffffffff16815260200190815260200160002060009054906101000a900460ff16613776576040517f08c379a000000000000000000000000000000000000000000000000000000000815260040161376d9061560e565b60405180910390fd5b8060070181600e0154815481106137905761378f614a3f565b5b9060005260206000200160009054906101000a900473ffffffffffffffffffffffffffffffffffffffff1673ffffffffffffffffffffffffffffffffffffffff163373ffffffffffffffffffffffffffffffffffffffff1614613828576040517f08c379a000000000000000000000000000000000000000000000000000000000815260040161381f90615191565b60405180910390fd5b600060016006423360405160200161384192919061558b565b6040516020818303038152906040528051906020012060001c61386491906153b9565b61386e91906153ea565b9050600081905060008360090160003373ffffffffffffffffffffffffffffffffffffffff1673ffffffffffffffffffffffffffffffffffffffff16815260200190815260200160002060009054906101000a900460ff1690508084600c0160003373ffffffffffffffffffffffffffffffffffffffff1673ffffffffffffffffffffffffffffffffffffffff16815260200190815260200160002060006101000a81548160ff021916908360ff1602179055506000808360ff168360ff16613937919061545d565b905060648161ffff161115613966576064816139539190615493565b606461395f9190615493565b915061396a565b8091505b61397382613eaf565b9150818660090160003373ffffffffffffffffffffffffffffffffffffffff1673ffffffffffffffffffffffffffffffffffffffff16815260200190815260200160002060006101000a81548160ff021916908360ff16021790555060648260ff1603613c48573386600f0160006101000a81548173ffffffffffffffffffffffffffffffffffffffff021916908373ffffffffffffffffffffffffffffffffffffffff160217905550613a803387600701805490508860040154613a3891906154c9565b600760009054906101000a900473ffffffffffffffffffffffffffffffffffffffff1673ffffffffffffffffffffffffffffffffffffffff16613f189092919063ffffffff16565b6000600260003373ffffffffffffffffffffffffffffffffffffffff1673ffffffffffffffffffffffffffffffffffffffff1681526020019081526020016000205403613b2b576003339080600181540180825580915050600190039060005260206000200160009091909190916101000a81548173ffffffffffffffffffffffffffffffffffffffff021916908373ffffffffffffffffffffffffffffffffffffffff1602179055505b6001600260003373ffffffffffffffffffffffffffffffffffffffff1673ffffffffffffffffffffffffffffffffffffffff1681526020019081526020016000206000828254613b7b91906153ea565b92505081905550877f4dc08ce212d967a2959e5901a545b00fd4f86c108a0de62a8d906b7b0793c6d633604051613bb2919061421f565b60405180910390a23373ffffffffffffffffffffffffffffffffffffffff167f24e225604268d6416871b32db1be8e49f497caf8360393b31d71a34a4ce26693600260003373ffffffffffffffffffffffffffffffffffffffff1673ffffffffffffffffffffffffffffffffffffffff16815260200190815260200160002054604051613c3f91906140bf565b60405180910390a25b8386600d0160003373ffffffffffffffffffffffffffffffffffffffff1673ffffffffffffffffffffffffffffffffffffffff16815260200190815260200160002060006101000a81548160ff021916908360ff160217905550877f1701fdea8aa3a219ddfea8b4cf993f7828c6a5300030a17da093bafa0b3155d13386604051613cd492919061550b565b60405180910390a26000613ce787613e45565b905060008760110160003373ffffffffffffffffffffffffffffffffffffffff1673ffffffffffffffffffffffffffffffffffffffff16815260200190815260200160002060006101000a81548160ff0219169083151502179055508087600a0160003373ffffffffffffffffffffffffffffffffffffffff1673ffffffffffffffffffffffffffffffffffffffff168152602001908152602001600020819055508660070180549050600188600e0154613da291906153ea565b613dac91906153b9565b87600e018190555084975050505050505050919050565b613e3f848573ffffffffffffffffffffffffffffffffffffffff166323b872dd868686604051602401613df89392919061562e565b604051602081830303815290604052915060e01b6020820180517bffffffffffffffffffffffffffffffffffffffffffffffffffffffff8381831617835250505050613f97565b50505050565b60008160050160009054906101000a900460ff16613e98576040517f08c379a0000000000000000000000000000000000000000000000000000000008152600401613e8f906156b1565b60405180910390fd5b816006015442613ea891906156d1565b9050919050565b600080600460008460ff1660ff16815260200190815260200160002060009054906101000a900460ff1660ff1614613f0f57600460008360ff1660ff16815260200190815260200160002060009054906101000a900460ff169050613f13565b8190505b919050565b613f92838473ffffffffffffffffffffffffffffffffffffffff1663a9059cbb8585604051602401613f4b929190615705565b604051602081830303815290604052915060e01b6020820180517bffffffffffffffffffffffffffffffffffffffffffffffffffffffff8381831617835250505050613f97565b505050565b600080602060008451602086016000885af180613fba576040513d6000823e3d81fd5b3d925060005191505060008214613fd5576001811415613ff1565b60008473ffffffffffffffffffffffffffffffffffffffff163b145b1561403357836040517f5274afe700000000000000000000000000000000000000000000000000000000815260040161402a919061421f565b60405180910390fd5b50505050565b6000604051905090565b600080fd5b600080fd5b6000819050919050565b6140608161404d565b811461406b57600080fd5b50565b60008135905061407d81614057565b92915050565b60006020828403121561409957614098614043565b5b60006140a78482850161406e565b91505092915050565b6140b98161404d565b82525050565b60006020820190506140d460008301846140b0565b92915050565b600073ffffffffffffffffffffffffffffffffffffffff82169050919050565b6000614105826140da565b9050919050565b614115816140fa565b811461412057600080fd5b50565b6000813590506141328161410c565b92915050565b6000806040838503121561414f5761414e614043565b5b600061415d8582860161406e565b925050602061416e85828601614123565b9150509250929050565b600060ff82169050919050565b61418e81614178565b82525050565b60008115159050919050565b6141a981614194565b82525050565b600060c0820190506141c46000830189614185565b6141d16020830188614185565b6141de60408301876141a0565b6141eb60608301866140b0565b6141f86080830185614185565b61420560a0830184614185565b979650505050505050565b614219816140fa565b82525050565b60006020820190506142346000830184614210565b92915050565b61424381614178565b811461424e57600080fd5b50565b6000813590506142608161423a565b92915050565b60008060006060848603121561427f5761427e614043565b5b600061428d8682870161406e565b935050602061429e86828701614123565b92505060406142af86828701614251565b9150509250925092565b600081519050919050565b600082825260208201905092915050565b6000819050602082019050919050565b6142ee816140fa565b82525050565b600061430083836142e5565b60208301905092915050565b6000602082019050919050565b6000614324826142b9565b61432e81856142c4565b9350614339836142d5565b8060005b8381101561436a57815161435188826142f4565b975061435c8361430c565b92505060018101905061433d565b5085935050505092915050565b600060208201905081810360008301526143918184614319565b905092915050565b6000602082840312156143af576143ae614043565b5b60006143bd84828501614123565b91505092915050565b60006060820190506143db60008301866140b0565b6143e860208301856140b0565b6143f560408301846140b0565b949350505050565b6000819050919050565b600061442261441d614418846140da565b6143fd565b6140da565b9050919050565b600061443482614407565b9050919050565b600061444682614429565b9050919050565b6144568161443b565b82525050565b6000602082019050614471600083018461444d565b92915050565b600081519050919050565b600082825260208201905092915050565b60005b838110156144b1578082015181840152602081019050614496565b60008484015250505050565b6000601f19601f8301169050919050565b60006144d982614477565b6144e38185614482565b93506144f3818560208601614493565b6144fc816144bd565b840191505092915050565b60006101008201905061451d600083018b614210565b61452a602083018a6140b0565b61453760408301896140b0565b61454460608301886140b0565b61455160808301876141a0565b61455e60a08301866140b0565b61456b60c0830185614210565b81810360e083015261457d81846144ce565b90509998505050505050505050565b60006020820190506145a160008301846141a0565b92915050565b600080fd5b600080fd5b7f4e487b7100000000000000000000000000000000000000000000000000000000600052604160045260246000fd5b6145e9826144bd565b810181811067ffffffffffffffff82111715614608576146076145b1565b5b80604052505050565b600061461b614039565b905061462782826145e0565b919050565b600067ffffffffffffffff821115614647576146466145b1565b5b614650826144bd565b9050602081019050919050565b82818337600083830152505050565b600061467f61467a8461462c565b614611565b90508281526020810184848401111561469b5761469a6145ac565b5b6146a684828561465d565b509392505050565b600082601f8301126146c3576146c26145a7565b5b81356146d384826020860161466c565b91505092915050565b6000806000606084860312156146f5576146f4614043565b5b60006147038682870161406e565b93505060206147148682870161406e565b925050604084013567ffffffffffffffff81111561473557614734614048565b5b614741868287016146ae565b9150509250925092565b60006020820190506147606000830184614185565b92915050565b600081519050919050565b600082825260208201905092915050565b6000819050602082019050919050565b61479b8161404d565b82525050565b60006147ad8383614792565b60208301905092915050565b6000602082019050919050565b60006147d182614766565b6147db8185614771565b93506147e683614782565b8060005b838110156148175781516147fe88826147a1565b9750614809836147b9565b9250506001810190506147ea565b5085935050505092915050565b6000602082019050818103600083015261483e81846147c6565b905092915050565b600060408201905081810360008301526148608185614319565b9050818103602083015261487481846147c6565b90509392505050565b7f4f6e6c79206f776e65722063616e2063616c6c20746869730000000000000000600082015250565b60006148b3601883614482565b91506148be8261487d565b602082019050919050565b600060208201905081810360008301526148e2816148a6565b9050919050565b7f4d6178207061727469636970616e7473206d757374206265206265747765656e60008201527f203220616e642031300000000000000000000000000000000000000000000000602082015250565b6000614945602983614482565b9150614950826148e9565b604082019050919050565b6000602082019050818103600083015261497481614938565b9050919050565b7f506c61796572206e6f7420696e20726f6f6d0000000000000000000000000000600082015250565b60006149b1601283614482565b91506149bc8261497b565b602082019050919050565b600060208201905081810360008301526149e0816149a4565b9050919050565b7f4e487b7100000000000000000000000000000000000000000000000000000000600052601160045260246000fd5b6000614a218261404d565b915060008203614a3457614a336149e7565b5b600182039050919050565b7f4e487b7100000000000000000000000000000000000000000000000000000000600052603260045260246000fd5b7f4e6f74206a6f696e656400000000000000000000000000000000000000000000600082015250565b6000614aa4600a83614482565b9150614aaf82614a6e565b602082019050919050565b60006020820190508181036000830152614ad381614a97565b9050919050565b6000614ae582614178565b9150614af083614178565b9250828201905060ff811115614b0957614b086149e7565b5b92915050565b6000614b1a8261404d565b91507fffffffffffffffffffffffffffffffffffffffffffffffffffffffffffffffff8203614b4c57614b4b6149e7565b5b600182019050919050565b7f4e487b7100000000000000000000000000000000000000000000000000000000600052602260045260246000fd5b60006002820490506001821680614b9e57607f821691505b602082108103614bb157614bb0614b57565b5b50919050565b7f496e76616c6964207061727469636970616e7420636f756e7420666f7220637560008201527f7272656e7420676c6f62616c206d617800000000000000000000000000000000602082015250565b6000614c13603083614482565b9150614c1e82614bb7565b604082019050919050565b60006020820190508181036000830152614c4281614c06565b9050919050565b7f5374616b65207265717569726564000000000000000000000000000000000000600082015250565b6000614c7f600e83614482565b9150614c8a82614c49565b602082019050919050565b60006020820190508181036000830152614cae81614c72565b9050919050565b7f4d65746164617461205552492072657175697265640000000000000000000000600082015250565b6000614ceb601583614482565b9150614cf682614cb5565b602082019050919050565b60006020820190508181036000830152614d1a81614cde565b9050919050565b60008190508160005260206000209050919050565b60006020601f8301049050919050565b600082821b905092915050565b600060088302614d837fffffffffffffffffffffffffffffffffffffffffffffffffffffffffffffffff82614d46565b614d8d8683614d46565b95508019841693508086168417925050509392505050565b6000614dc0614dbb614db68461404d565b6143fd565b61404d565b9050919050565b6000819050919050565b614dda83614da5565b614dee614de682614dc7565b848454614d53565b825550505050565b600090565b614e03614df6565b614e0e818484614dd1565b505050565b5b81811015614e3257614e27600082614dfb565b600181019050614e14565b5050565b601f821115614e7757614e4881614d21565b614e5184614d36565b81016020851015614e60578190505b614e74614e6c85614d36565b830182614e13565b50505b505050565b600082821c905092915050565b6000614e9a60001984600802614e7c565b1980831691505092915050565b6000614eb38383614e89565b9150826002028217905092915050565b614ecc82614477565b67ffffffffffffffff811115614ee557614ee46145b1565b5b614eef8254614b86565b614efa828285614e36565b600060209050601f831160018114614f2d5760008415614f1b578287015190505b614f258582614ea7565b865550614f8d565b601f198416614f3b86614d21565b60005b82811015614f6357848901518255600182019150602085019450602081019050614f3e565b86831015614f805784890151614f7c601f891682614e89565b8355505b6001600288020188555050505b505050505050565b7f47616d6520737461727465640000000000000000000000000000000000000000600082015250565b6000614fcb600c83614482565b9150614fd682614f95565b602082019050919050565b60006020820190508181036000830152614ffa81614fbe565b9050919050565b7f526f6f6d2066756c6c0000000000000000000000000000000000000000000000600082015250565b6000615037600983614482565b915061504282615001565b602082019050919050565b600060208201905081810360008301526150668161502a565b9050919050565b7f416c7265616479206a6f696e6564000000000000000000000000000000000000600082015250565b60006150a3600e83614482565b91506150ae8261506d565b602082019050919050565b600060208201905081810360008301526150d281615096565b9050919050565b7f4e6f742073746172746564000000000000000000000000000000000000000000600082015250565b600061510f600b83614482565b915061511a826150d9565b602082019050919050565b6000602082019050818103600083015261513e81615102565b9050919050565b7f4e6f7420796f7572207475726e00000000000000000000000000000000000000600082015250565b600061517b600d83614482565b915061518682615145565b602082019050919050565b600060208201905081810360008301526151aa8161516e565b9050919050565b7f47616d65206f7665720000000000000000000000000000000000000000000000600082015250565b60006151e7600983614482565b91506151f2826151b1565b602082019050919050565b60006020820190508181036000830152615216816151da565b9050919050565b7f4d7573742075736520657874726120726f6c6c00000000000000000000000000600082015250565b6000615253601383614482565b915061525e8261521d565b602082019050919050565b6000602082019050818103600083015261528281615246565b9050919050565b7f526f6c6c206e6f7420616c6c6f77656420696e2063757272656e7420736c6f74600082015250565b60006152bf602083614482565b91506152ca82615289565b602082019050919050565b600060208201905081810360008301526152ee816152b2565b9050919050565b6000819050919050565b61531061530b8261404d565b6152f5565b82525050565b60008160601b9050919050565b600061532e82615316565b9050919050565b600061534082615323565b9050919050565b615358615353826140fa565b615335565b82525050565b600061536a82856152ff565b60208201915061537a8284615347565b6014820191508190509392505050565b7f4e487b7100000000000000000000000000000000000000000000000000000000600052601260045260246000fd5b60006153c48261404d565b91506153cf8361404d565b9250826153df576153de61538a565b5b828206905092915050565b60006153f58261404d565b91506154008361404d565b9250828201905080821115615418576154176149e7565b5b92915050565b600061542982614178565b915061543483614178565b9250826154445761544361538a565b5b828204905092915050565b600061ffff82169050919050565b60006154688261544f565b91506154738361544f565b9250828201905061ffff81111561548d5761548c6149e7565b5b92915050565b600061549e8261544f565b91506154a98361544f565b9250828203905061ffff8111156154c3576154c26149e7565b5b92915050565b60006154d48261404d565b91506154df8361404d565b92508282026154ed8161404d565b91508282048414831517615504576155036149e7565b5b5092915050565b60006040820190506155206000830185614210565b61552d6020830184614185565b9392505050565b600081905092915050565b7f6578747261000000000000000000000000000000000000000000000000000000600082015250565b6000615575600583615534565b91506155808261553f565b600582019050919050565b600061559782856152ff565b6020820191506155a78284615347565b6014820191506155b682615568565b91508190509392505050565b7f4e6f20657874726120726f6c6c206772616e7465640000000000000000000000600082015250565b60006155f8601583614482565b9150615603826155c2565b602082019050919050565b60006020820190508181036000830152615627816155eb565b9050919050565b60006060820190506156436000830186614210565b6156506020830185614210565b61565d60408301846140b0565b949350505050565b7f47616d65206e6f74207374617274656400000000000000000000000000000000600082015250565b600061569b601083614482565b91506156a682615665565b602082019050919050565b600060208201905081810360008301526156ca8161568e565b9050919050565b60006156dc8261404d565b91506156e78361404d565b92508282039050818111156156ff576156fe6149e7565b5b92915050565b600060408201905061571a6000830185614210565b61572760208301846140b0565b939250505056fea26469706673582212205ac8aaff8c37b0715a982da6a54e8708d9b5618b32886b1921863085f3087eb064736f6c634300081c0033",
  "linkReferences": {},
  "deployedLinkReferences": {}
}