{
  "_format": "hh-sol-artifact-1",
  "contractName": "SnakeGame",
  "sourceName": "contracts/SnakeLadderGame.sol",
  "abi": [
    {
      "inputs": [
        {
          "internalType": "address",
          "name": "_stakeToken",
          "type": "address"
        }
      ],
      "stateMutability": "nonpayable",
      "type": "constructor"
    },
    {
      "inputs": [
        {
          "internalType": "address",
          "name": "token",
          "type": "address"
        }
      ],
      "name": "SafeERC20FailedOperation",
      "type": "error"
    },
    {
      "anonymous": false,
      "inputs": [
        {
          "indexed": true,
          "internalType": "uint256",
          "name": "roomId",
          "type": "uint256"
        },
        {
          "indexed": false,
          "internalType": "address",
          "name": "player",
          "type": "address"
        },
        {
          "indexed": false,
          "internalType": "uint8",
          "name": "roll",
          "type": "uint8"
        }
      ],
      "name": "DiceRolled",
      "type": "event"
    },
    {
      "anonymous": false,
      "inputs": [
        {
          "indexed": true,
          "internalType": "uint256",
          "name": "roomId",
          "type": "uint256"
        },
        {
          "indexed": false,
          "internalType": "address",
          "name": "winner",
          "type": "address"
        }
      ],
      "name": "GameWon",
      "type": "event"
    },
    {
      "anonymous": false,
      "inputs": [
        {
          "indexed": true,
          "internalType": "uint256",
          "name": "roomId",
          "type": "uint256"
        },
        {
          "indexed": false,
          "internalType": "address",
          "name": "player",
          "type": "address"
        }
      ],
      "name": "Participated",
      "type": "event"
    },
    {
      "anonymous": false,
      "inputs": [
        {
          "indexed": true,
          "internalType": "uint256",
          "name": "roomId",
          "type": "uint256"
        },
        {
          "indexed": false,
          "internalType": "address",
          "name": "creator",
          "type": "address"
        }
      ],
      "name": "RoomCreated",
      "type": "event"
    },
    {
      "inputs": [
        {
          "internalType": "uint256",
          "name": "roomId",
          "type": "uint256"
        }
      ],
      "name": "autoRoll",
      "outputs": [],
      "stateMutability": "nonpayable",
      "type": "function"
    },
    {
      "inputs": [
        {
          "internalType": "uint256",
          "name": "_requiredParticipants",
          "type": "uint256"
        },
        {
          "internalType": "uint256",
          "name": "_stakeAmount",
          "type": "uint256"
        },
        {
          "internalType": "string",
          "name": "_metadataUri",
          "type": "string"
        }
      ],
      "name": "createRoom",
      "outputs": [],
      "stateMutability": "nonpayable",
      "type": "function"
    },
    {
      "inputs": [
        {
          "internalType": "uint256",
          "name": "roomId",
          "type": "uint256"
        }
      ],
      "name": "getCurrentPlayer",
      "outputs": [
        {
          "internalType": "address",
          "name": "",
          "type": "address"
        }
      ],
      "stateMutability": "view",
      "type": "function"
    },
    {
      "inputs": [],
      "name": "getCurrentRunningRoomId",
      "outputs": [
        {
          "internalType": "uint256",
          "name": "",
          "type": "uint256"
        }
      ],
      "stateMutability": "view",
      "type": "function"
    },
    {
      "inputs": [],
      "name": "getLastRoomId",
      "outputs": [
        {
          "internalType": "uint256",
          "name": "",
          "type": "uint256"
        }
      ],
      "stateMutability": "view",
      "type": "function"
    },
    {
      "inputs": [
        {
          "internalType": "uint256",
          "name": "roomId",
          "type": "uint256"
        }
      ],
      "name": "getRoomInfo",
      "outputs": [
        {
          "internalType": "address",
          "name": "creator",
          "type": "address"
        },
        {
          "internalType": "uint256",
          "name": "requiredParticipants",
          "type": "uint256"
        },
        {
          "internalType": "uint256",
          "name": "maxParticipants",
          "type": "uint256"
        },
        {
          "internalType": "uint256",
          "name": "stakeAmount",
          "type": "uint256"
        },
        {
          "internalType": "bool",
          "name": "started",
          "type": "bool"
        },
        {
          "internalType": "uint256",
          "name": "gameStartTime",
          "type": "uint256"
        },
        {
          "internalType": "address",
          "name": "winner",
          "type": "address"
        },
        {
          "internalType": "string",
          "name": "metadataUri",
          "type": "string"
        }
      ],
      "stateMutability": "view",
      "type": "function"
    },
    {
      "inputs": [
        {
          "internalType": "uint256",
          "name": "roomId",
          "type": "uint256"
        }
      ],
      "name": "getRoomPlayers",
      "outputs": [
        {
          "internalType": "address[]",
          "name": "",
          "type": "address[]"
        }
      ],
      "stateMutability": "view",
      "type": "function"
    },
    {
      "inputs": [
        {
          "internalType": "uint256",
          "name": "roomId",
          "type": "uint256"
        },
        {
          "internalType": "address",
          "name": "player",
          "type": "address"
        }
      ],
      "name": "getUserInfo",
      "outputs": [
        {
          "internalType": "uint8",
          "name": "lastPosition",
          "type": "uint8"
        },
        {
          "internalType": "uint8",
          "name": "currentPosition",
          "type": "uint8"
        },
        {
          "internalType": "uint256",
          "name": "lastRoll",
          "type": "uint256"
        },
        {
          "internalType": "uint8",
          "name": "prasad",
          "type": "uint8"
        }
      ],
      "stateMutability": "view",
      "type": "function"
    },
    {
      "inputs": [],
      "name": "globalMaxParticipants",
      "outputs": [
        {
          "internalType": "uint256",
          "name": "",
          "type": "uint256"
        }
      ],
      "stateMutability": "view",
      "type": "function"
    },
    {
      "inputs": [
        {
          "internalType": "uint256",
          "name": "roomId",
          "type": "uint256"
        },
        {
          "internalType": "address",
          "name": "player",
          "type": "address"
        }
      ],
      "name": "hasJoined",
      "outputs": [
        {
          "internalType": "bool",
          "name": "",
          "type": "bool"
        }
      ],
      "stateMutability": "view",
      "type": "function"
    },
    {
      "inputs": [
        {
          "internalType": "uint256",
          "name": "roomId",
          "type": "uint256"
        }
      ],
      "name": "participate",
      "outputs": [],
      "stateMutability": "nonpayable",
      "type": "function"
    },
    {
      "inputs": [
        {
          "internalType": "uint256",
          "name": "roomId",
          "type": "uint256"
        }
      ],
      "name": "rollDice",
      "outputs": [],
      "stateMutability": "nonpayable",
      "type": "function"
    },
    {
      "inputs": [],
      "name": "roomCount",
      "outputs": [
        {
          "internalType": "uint256",
          "name": "",
          "type": "uint256"
        }
      ],
      "stateMutability": "view",
      "type": "function"
    },
    {
      "inputs": [
        {
          "internalType": "uint256",
          "name": "_newMaxParticipants",
          "type": "uint256"
        }
      ],
      "name": "setGlobalMaxParticipants",
      "outputs": [],
      "stateMutability": "nonpayable",
      "type": "function"
    },
    {
      "inputs": [],
      "name": "stakeToken",
      "outputs": [
        {
          "internalType": "contract IERC20",
          "name": "",
          "type": "address"
        }
      ],
      "stateMutability": "view",
      "type": "function"
    },
    {
      "inputs": [
        {
          "internalType": "uint256",
          "name": "roomId",
          "type": "uint256"
        },
        {
          "internalType": "address",
          "name": "player",
          "type": "address"
        },
        {
          "internalType": "uint8",
          "name": "activityWeight",
          "type": "uint8"
        }
      ],
      "name": "updatePrasadMeter",
      "outputs": [],
      "stateMutability": "nonpayable",
      "type": "function"
    }
  ],
  "bytecode": "0x608060405234801561001057600080fd5b50604051613cba380380613cba83398181016040528101906100329190610529565b33600360006101000a81548173ffffffffffffffffffffffffffffffffffffffff021916908373ffffffffffffffffffffffffffffffffffffffff16021790555080600560006101000a81548173ffffffffffffffffffffffffffffffffffffffff021916908373ffffffffffffffffffffffffffffffffffffffff16021790555060048081905550601560026000606360ff16815260200190815260200160002060006101000a81548160ff021916908360ff160217905550604b60026000605f60ff16815260200190815260200160002060006101000a81548160ff021916908360ff160217905550605860026000605c60ff16815260200190815260200160002060006101000a81548160ff021916908360ff160217905550604460026000605960ff16815260200190815260200160002060006101000a81548160ff021916908360ff160217905550603560026000604a60ff16815260200190815260200160002060006101000a81548160ff021916908360ff160217905550601860026000603e60ff16815260200190815260200160002060006101000a81548160ff021916908360ff160217905550601460026000604060ff16815260200190815260200160002060006101000a81548160ff021916908360ff160217905550600b60026000603160ff16815260200190815260200160002060006101000a81548160ff021916908360ff160217905550601960026000602e60ff16815260200190815260200160002060006101000a81548160ff021916908360ff160217905550600660026000601060ff16815260200190815260200160002060006101000a81548160ff021916908360ff160217905550602660026000600260ff16815260200190815260200160002060006101000a81548160ff021916908360ff160217905550600e60026000600760ff16815260200190815260200160002060006101000a81548160ff021916908360ff160217905550601f60026000600860ff16815260200190815260200160002060006101000a81548160ff021916908360ff160217905550601a60026000600f60ff16815260200190815260200160002060006101000a81548160ff021916908360ff160217905550602a60026000601560ff16815260200190815260200160002060006101000a81548160ff021916908360ff160217905550605460026000601c60ff16815260200190815260200160002060006101000a81548160ff021916908360ff160217905550602c60026000602460ff16815260200190815260200160002060006101000a81548160ff021916908360ff160217905550604360026000603360ff16815260200190815260200160002060006101000a81548160ff021916908360ff160217905550605b60026000604760ff16815260200190815260200160002060006101000a81548160ff021916908360ff160217905550606260026000604e60ff16815260200190815260200160002060006101000a81548160ff021916908360ff160217905550605e60026000605760ff16815260200190815260200160002060006101000a81548160ff021916908360ff16021790555050610556565b600080fd5b600073ffffffffffffffffffffffffffffffffffffffff82169050919050565b60006104f6826104cb565b9050919050565b610506816104eb565b811461051157600080fd5b50565b600081519050610523816104fd565b92915050565b60006020828403121561053f5761053e6104c6565b5b600061054d84828501610514565b91505092915050565b613755806105656000396000f3fe608060405234801561001057600080fd5b50600436106101005760003560e01c80636819471911610097578063acfff37711610066578063acfff377146102c9578063bf76c7b0146102e5578063c1c33bfa14610301578063df93a4e31461031f57610100565b8063681947191461024357806380f5684014610273578063845c93061461028f578063a83812fd146102ab57610100565b80632d7572a4116100d35780632d7572a4146101a257806343925cc3146101be57806351ed6a30146101ee5780636790d2b51461020c57610100565b80630328f964146101055780631069f3b514610121578063158b6c55146101545780632663863114610172575b600080fd5b61011f600480360381019061011a9190612347565b61033d565b005b61013b600480360381019061013691906123d2565b610427565b60405161014b949392919061243d565b60405180910390f35b61015c610612565b6040516101699190612482565b60405180910390f35b61018c60048036038101906101879190612347565b6106d3565b60405161019991906124ac565b60405180910390f35b6101bc60048036038101906101b791906124f3565b610737565b005b6101d860048036038101906101d39190612347565b6108e6565b6040516101e59190612604565b60405180910390f35b6101f6610989565b6040516102039190612685565b60405180910390f35b61022660048036038101906102219190612347565b6109af565b60405161023a98979695949392919061274b565b60405180910390f35b61025d600480360381019061025891906123d2565b610aee565b60405161026a91906127d0565b60405180910390f35b61028d60048036038101906102889190612920565b610b58565b005b6102a960048036038101906102a49190612347565b610f51565b005b6102b3611342565b6040516102c09190612482565b60405180910390f35b6102e360048036038101906102de9190612347565b611348565b005b6102ff60048036038101906102fa9190612347565b611ad3565b005b61030961206a565b6040516103169190612482565b60405180910390f35b610327612074565b6040516103349190612482565b60405180910390f35b600360009054906101000a900473ffffffffffffffffffffffffffffffffffffffff1673ffffffffffffffffffffffffffffffffffffffff163373ffffffffffffffffffffffffffffffffffffffff16146103cd576040517f08c379a00000000000000000000000000000000000000000000000000000000081526004016103c4906129db565b60405180910390fd5b6001811180156103de5750600a8111155b61041d576040517f08c379a000000000000000000000000000000000000000000000000000000000815260040161041490612a6d565b60405180910390fd5b8060048190555050565b600080600080600080600088815260200190815260200160002090508060080160008773ffffffffffffffffffffffffffffffffffffffff1673ffffffffffffffffffffffffffffffffffffffff16815260200190815260200160002060009054906101000a900460ff166104d1576040517f08c379a00000000000000000000000000000000000000000000000000000000081526004016104c890612ad9565b60405180910390fd5b80600c0160008773ffffffffffffffffffffffffffffffffffffffff1673ffffffffffffffffffffffffffffffffffffffff16815260200190815260200160002060009054906101000a900460ff168160090160008873ffffffffffffffffffffffffffffffffffffffff1673ffffffffffffffffffffffffffffffffffffffff16815260200190815260200160002060009054906101000a900460ff1682600a0160008973ffffffffffffffffffffffffffffffffffffffff1673ffffffffffffffffffffffffffffffffffffffff1681526020019081526020016000205483600b0160008a73ffffffffffffffffffffffffffffffffffffffff1673ffffffffffffffffffffffffffffffffffffffff16815260200190815260200160002060009054906101000a900460ff1694509450945094505092959194509250565b60008060015490505b600181106106ca57600080600083815260200190815260200160002090508060050160009054906101000a900460ff1680156106a75750600073ffffffffffffffffffffffffffffffffffffffff1681600e0160009054906101000a900473ffffffffffffffffffffffffffffffffffffffff1673ffffffffffffffffffffffffffffffffffffffff16145b156106b65781925050506106d0565b5080806106c290612b28565b91505061061b565b50600090505b90565b60008060008084815260200190815260200160002090508060070181600d01548154811061070457610703612b51565b5b9060005260206000200160009054906101000a900473ffffffffffffffffffffffffffffffffffffffff16915050919050565b600360009054906101000a900473ffffffffffffffffffffffffffffffffffffffff1673ffffffffffffffffffffffffffffffffffffffff163373ffffffffffffffffffffffffffffffffffffffff16146107c7576040517f08c379a00000000000000000000000000000000000000000000000000000000081526004016107be906129db565b60405180910390fd5b600080600085815260200190815260200160002090508060080160008473ffffffffffffffffffffffffffffffffffffffff1673ffffffffffffffffffffffffffffffffffffffff16815260200190815260200160002060009054906101000a900460ff1661086b576040517f08c379a000000000000000000000000000000000000000000000000000000000815260040161086290612bcc565b60405180910390fd5b8181600b0160008573ffffffffffffffffffffffffffffffffffffffff1673ffffffffffffffffffffffffffffffffffffffff16815260200190815260200160002060008282829054906101000a900460ff166108c89190612bec565b92506101000a81548160ff021916908360ff16021790555050505050565b606060008083815260200190815260200160002060070180548060200260200160405190810160405280929190818152602001828054801561097d57602002820191906000526020600020905b8160009054906101000a900473ffffffffffffffffffffffffffffffffffffffff1673ffffffffffffffffffffffffffffffffffffffff1681526020019060010190808311610933575b50505050509050919050565b600560009054906101000a900473ffffffffffffffffffffffffffffffffffffffff1681565b6000806000806000806000606060008060008b815260200190815260200160002090508060010160009054906101000a900473ffffffffffffffffffffffffffffffffffffffff168160020154826003015483600401548460050160009054906101000a900460ff16856006015486600e0160009054906101000a900473ffffffffffffffffffffffffffffffffffffffff1687600f01808054610a5290612c50565b80601f0160208091040260200160405190810160405280929190818152602001828054610a7e90612c50565b8015610acb5780601f10610aa057610100808354040283529160200191610acb565b820191906000526020600020905b815481529060010190602001808311610aae57829003601f168201915b505050505090509850985098509850985098509850985050919395975091939597565b600080600084815260200190815260200160002060080160008373ffffffffffffffffffffffffffffffffffffffff1673ffffffffffffffffffffffffffffffffffffffff16815260200190815260200160002060009054906101000a900460ff16905092915050565b600183118015610b6a57506004548311155b610ba9576040517f08c379a0000000000000000000000000000000000000000000000000000000008152600401610ba090612cf3565b60405180910390fd5b60008211610bec576040517f08c379a0000000000000000000000000000000000000000000000000000000008152600401610be390612d5f565b60405180910390fd5b6000815111610c30576040517f08c379a0000000000000000000000000000000000000000000000000000000008152600401610c2790612dcb565b60405180910390fd5b610c7f333084600560009054906101000a900473ffffffffffffffffffffffffffffffffffffffff1673ffffffffffffffffffffffffffffffffffffffff1661207a909392919063ffffffff16565b60016000815480929190610c9290612deb565b91905055506000806000600154815260200190815260200160002090506001548160000181905550338160010160006101000a81548173ffffffffffffffffffffffffffffffffffffffff021916908373ffffffffffffffffffffffffffffffffffffffff16021790555083816002018190555060045481600301819055508281600401819055508181600f019081610d2b9190612fd5565b5080600701339080600181540180825580915050600190039060005260206000200160009091909190916101000a81548173ffffffffffffffffffffffffffffffffffffffff021916908373ffffffffffffffffffffffffffffffffffffffff16021790555060018160080160003373ffffffffffffffffffffffffffffffffffffffff1673ffffffffffffffffffffffffffffffffffffffff16815260200190815260200160002060006101000a81548160ff02191690831515021790555060018160090160003373ffffffffffffffffffffffffffffffffffffffff1673ffffffffffffffffffffffffffffffffffffffff16815260200190815260200160002060006101000a81548160ff021916908360ff1602179055507fffffffffffffffffffffffffffffffffffffffffffffffffffffffffffffffff81600a0160003373ffffffffffffffffffffffffffffffffffffffff1673ffffffffffffffffffffffffffffffffffffffff16815260200190815260200160002081905550600181600c0160003373ffffffffffffffffffffffffffffffffffffffff1673ffffffffffffffffffffffffffffffffffffffff16815260200190815260200160002060006101000a81548160ff021916908360ff160217905550600081600d01819055506001547fdeb4915464f2fab35f9ed95b8c2dc62a1af9edc45ebc42643517a7893e49bca833604051610f4391906124ac565b60405180910390a250505050565b600080600083815260200190815260200160002090508060050160009054906101000a900460ff1615610fb9576040517f08c379a0000000000000000000000000000000000000000000000000000000008152600401610fb0906130f3565b60405180910390fd5b8060030154816007018054905010611006576040517f08c379a0000000000000000000000000000000000000000000000000000000008152600401610ffd9061315f565b60405180910390fd5b8060080160003373ffffffffffffffffffffffffffffffffffffffff1673ffffffffffffffffffffffffffffffffffffffff16815260200190815260200160002060009054906101000a900460ff1615611095576040517f08c379a000000000000000000000000000000000000000000000000000000000815260040161108c906131cb565b60405180910390fd5b6110e833308360040154600560009054906101000a900473ffffffffffffffffffffffffffffffffffffffff1673ffffffffffffffffffffffffffffffffffffffff1661207a909392919063ffffffff16565b80600701339080600181540180825580915050600190039060005260206000200160009091909190916101000a81548173ffffffffffffffffffffffffffffffffffffffff021916908373ffffffffffffffffffffffffffffffffffffffff16021790555060018160080160003373ffffffffffffffffffffffffffffffffffffffff1673ffffffffffffffffffffffffffffffffffffffff16815260200190815260200160002060006101000a81548160ff02191690831515021790555060018160090160003373ffffffffffffffffffffffffffffffffffffffff1673ffffffffffffffffffffffffffffffffffffffff16815260200190815260200160002060006101000a81548160ff021916908360ff1602179055507fffffffffffffffffffffffffffffffffffffffffffffffffffffffffffffffff81600a0160003373ffffffffffffffffffffffffffffffffffffffff1673ffffffffffffffffffffffffffffffffffffffff16815260200190815260200160002081905550600181600c0160003373ffffffffffffffffffffffffffffffffffffffff1673ffffffffffffffffffffffffffffffffffffffff16815260200190815260200160002060006101000a81548160ff021916908360ff160217905550817f6850e1e5da04837e49d432a9f3fc202557ed03c0518544076fd82a2d2eec9b82336040516112f391906124ac565b60405180910390a2806002015481600701805490500361133e5760018160050160006101000a81548160ff021916908315150217905550428160060181905550600081600d01819055505b5050565b60045481565b600080600083815260200190815260200160002090508060050160009054906101000a900460ff166113af576040517f08c379a00000000000000000000000000000000000000000000000000000000081526004016113a690613237565b60405180910390fd5b8060080160003373ffffffffffffffffffffffffffffffffffffffff1673ffffffffffffffffffffffffffffffffffffffff16815260200190815260200160002060009054906101000a900460ff1661143d576040517f08c379a000000000000000000000000000000000000000000000000000000000815260040161143490612bcc565b60405180910390fd5b8060070181600d01548154811061145757611456612b51565b5b9060005260206000200160009054906101000a900473ffffffffffffffffffffffffffffffffffffffff1673ffffffffffffffffffffffffffffffffffffffff163373ffffffffffffffffffffffffffffffffffffffff16146114ef576040517f08c379a00000000000000000000000000000000000000000000000000000000081526004016114e6906132a3565b60405180910390fd5b600073ffffffffffffffffffffffffffffffffffffffff1681600e0160009054906101000a900473ffffffffffffffffffffffffffffffffffffffff1673ffffffffffffffffffffffffffffffffffffffff1614611582576040517f08c379a00000000000000000000000000000000000000000000000000000000081526004016115799061330f565b60405180910390fd5b600061158d826120fc565b90508082600a0160003373ffffffffffffffffffffffffffffffffffffffff1673ffffffffffffffffffffffffffffffffffffffff16815260200190815260200160002054108061163e57507fffffffffffffffffffffffffffffffffffffffffffffffffffffffffffffffff82600a0160003373ffffffffffffffffffffffffffffffffffffffff1673ffffffffffffffffffffffffffffffffffffffff16815260200190815260200160002054145b61167d576040517f08c379a00000000000000000000000000000000000000000000000000000000081526004016116749061337b565b60405180910390fd5b6000600160064233604051602001611696929190613404565b6040516020818303038152906040528051906020012060001c6116b9919061345f565b6116c39190613490565b90506000600a84600b0160003373ffffffffffffffffffffffffffffffffffffffff1673ffffffffffffffffffffffffffffffffffffffff16815260200190815260200160002060009054906101000a900460ff1661172291906134c4565b9050600081836117329190612bec565b905060068160ff16111561174557600690505b60068160ff16036117a857600060016006423360405160200161176992919061354c565b6040516020818303038152906040528051906020012060001c61178c919061345f565b6117969190613490565b905080826117a49190612bec565b9150505b60008560090160003373ffffffffffffffffffffffffffffffffffffffff1673ffffffffffffffffffffffffffffffffffffffff16815260200190815260200160002060009054906101000a900460ff1690508086600c0160003373ffffffffffffffffffffffffffffffffffffffff1673ffffffffffffffffffffffffffffffffffffffff16815260200190815260200160002060006101000a81548160ff021916908360ff160217905550600082826118639190612bec565b905060648160ff16111561187657606490505b61187f81612173565b9050808760090160003373ffffffffffffffffffffffffffffffffffffffff1673ffffffffffffffffffffffffffffffffffffffff16815260200190815260200160002060006101000a81548160ff021916908360ff16021790555060648160ff16106119c5573387600e0160006101000a81548173ffffffffffffffffffffffffffffffffffffffff021916908373ffffffffffffffffffffffffffffffffffffffff16021790555061198c33886007018054905089600401546119449190613583565b600560009054906101000a900473ffffffffffffffffffffffffffffffffffffffff1673ffffffffffffffffffffffffffffffffffffffff166121dc9092919063ffffffff16565b877f4dc08ce212d967a2959e5901a545b00fd4f86c108a0de62a8d906b7b0793c6d6336040516119bc91906124ac565b60405180910390a25b8587600a0160003373ffffffffffffffffffffffffffffffffffffffff1673ffffffffffffffffffffffffffffffffffffffff16815260200190815260200160002081905550877f1701fdea8aa3a219ddfea8b4cf993f7828c6a5300030a17da093bafa0b3155d13385604051611a3d9291906135c5565b60405180910390a2600073ffffffffffffffffffffffffffffffffffffffff1687600e0160009054906101000a900473ffffffffffffffffffffffffffffffffffffffff1673ffffffffffffffffffffffffffffffffffffffff1603611ac9578660070180549050600188600d0154611ab69190613490565b611ac0919061345f565b87600d01819055505b5050505050505050565b600080600083815260200190815260200160002090508060050160009054906101000a900460ff16611b3a576040517f08c379a0000000000000000000000000000000000000000000000000000000008152600401611b3190613237565b60405180910390fd5b600073ffffffffffffffffffffffffffffffffffffffff1681600e0160009054906101000a900473ffffffffffffffffffffffffffffffffffffffff1673ffffffffffffffffffffffffffffffffffffffff1614611bcd576040517f08c379a0000000000000000000000000000000000000000000000000000000008152600401611bc49061330f565b60405180910390fd5b6000611bd8826120fc565b905060005b8260070180549050811015612063576000836007018281548110611c0457611c03612b51565b5b9060005260206000200160009054906101000a900473ffffffffffffffffffffffffffffffffffffffff1690508284600a0160008373ffffffffffffffffffffffffffffffffffffffff1673ffffffffffffffffffffffffffffffffffffffff168152602001908152602001600020541015612055576000600160064284604051602001611c93929190613404565b6040516020818303038152906040528051906020012060001c611cb6919061345f565b611cc09190613490565b90506000600a86600b0160008573ffffffffffffffffffffffffffffffffffffffff1673ffffffffffffffffffffffffffffffffffffffff16815260200190815260200160002060009054906101000a900460ff16611d1f91906134c4565b905060008183611d2f9190612bec565b905060068160ff161115611d4257600690505b60068160ff1603611da5576000600160064287604051602001611d6692919061354c565b6040516020818303038152906040528051906020012060001c611d89919061345f565b611d939190613490565b90508082611da19190612bec565b9150505b60008760090160008673ffffffffffffffffffffffffffffffffffffffff1673ffffffffffffffffffffffffffffffffffffffff16815260200190815260200160002060009054906101000a900460ff1690508088600c0160008773ffffffffffffffffffffffffffffffffffffffff1673ffffffffffffffffffffffffffffffffffffffff16815260200190815260200160002060006101000a81548160ff021916908360ff16021790555060008282611e609190612bec565b905060648160ff161115611e7357606490505b611e7c81612173565b9050808960090160008873ffffffffffffffffffffffffffffffffffffffff1673ffffffffffffffffffffffffffffffffffffffff16815260200190815260200160002060006101000a81548160ff021916908360ff16021790555060648160ff1610611fcf578589600e0160006101000a81548173ffffffffffffffffffffffffffffffffffffffff021916908373ffffffffffffffffffffffffffffffffffffffff160217905550611f89868a600701805490508b60040154611f419190613583565b600560009054906101000a900473ffffffffffffffffffffffffffffffffffffffff1673ffffffffffffffffffffffffffffffffffffffff166121dc9092919063ffffffff16565b897f4dc08ce212d967a2959e5901a545b00fd4f86c108a0de62a8d906b7b0793c6d687604051611fb991906124ac565b60405180910390a2505050505050505050612067565b8789600a0160008873ffffffffffffffffffffffffffffffffffffffff1673ffffffffffffffffffffffffffffffffffffffff16815260200190815260200160002081905550897f1701fdea8aa3a219ddfea8b4cf993f7828c6a5300030a17da093bafa0b3155d187856040516120479291906135c5565b60405180910390a250505050505b508080600101915050611bdd565b5050505b50565b6000600154905090565b60015481565b6120f6848573ffffffffffffffffffffffffffffffffffffffff166323b872dd8686866040516024016120af939291906135ee565b604051602081830303815290604052915060e01b6020820180517bffffffffffffffffffffffffffffffffffffffffffffffffffffffff838183161783525050505061225b565b50505050565b60008160050160009054906101000a900460ff1661214f576040517f08c379a000000000000000000000000000000000000000000000000000000000815260040161214690613671565b60405180910390fd5b6102588260060154426121629190613691565b61216c91906136c5565b9050919050565b600080600260008460ff1660ff16815260200190815260200160002060009054906101000a900460ff1660ff16146121d357600260008360ff1660ff16815260200190815260200160002060009054906101000a900460ff1690506121d7565b8190505b919050565b612256838473ffffffffffffffffffffffffffffffffffffffff1663a9059cbb858560405160240161220f9291906136f6565b604051602081830303815290604052915060e01b6020820180517bffffffffffffffffffffffffffffffffffffffffffffffffffffffff838183161783525050505061225b565b505050565b600080602060008451602086016000885af18061227e576040513d6000823e3d81fd5b3d9250600051915050600082146122995760018114156122b5565b60008473ffffffffffffffffffffffffffffffffffffffff163b145b156122f757836040517f5274afe70000000000000000000000000000000000000000000000000000000081526004016122ee91906124ac565b60405180910390fd5b50505050565b6000604051905090565b600080fd5b600080fd5b6000819050919050565b61232481612311565b811461232f57600080fd5b50565b6000813590506123418161231b565b92915050565b60006020828403121561235d5761235c612307565b5b600061236b84828501612332565b91505092915050565b600073ffffffffffffffffffffffffffffffffffffffff82169050919050565b600061239f82612374565b9050919050565b6123af81612394565b81146123ba57600080fd5b50565b6000813590506123cc816123a6565b92915050565b600080604083850312156123e9576123e8612307565b5b60006123f785828601612332565b9250506020612408858286016123bd565b9150509250929050565b600060ff82169050919050565b61242881612412565b82525050565b61243781612311565b82525050565b6000608082019050612452600083018761241f565b61245f602083018661241f565b61246c604083018561242e565b612479606083018461241f565b95945050505050565b6000602082019050612497600083018461242e565b92915050565b6124a681612394565b82525050565b60006020820190506124c1600083018461249d565b92915050565b6124d081612412565b81146124db57600080fd5b50565b6000813590506124ed816124c7565b92915050565b60008060006060848603121561250c5761250b612307565b5b600061251a86828701612332565b935050602061252b868287016123bd565b925050604061253c868287016124de565b9150509250925092565b600081519050919050565b600082825260208201905092915050565b6000819050602082019050919050565b61257b81612394565b82525050565b600061258d8383612572565b60208301905092915050565b6000602082019050919050565b60006125b182612546565b6125bb8185612551565b93506125c683612562565b8060005b838110156125f75781516125de8882612581565b97506125e983612599565b9250506001810190506125ca565b5085935050505092915050565b6000602082019050818103600083015261261e81846125a6565b905092915050565b6000819050919050565b600061264b61264661264184612374565b612626565b612374565b9050919050565b600061265d82612630565b9050919050565b600061266f82612652565b9050919050565b61267f81612664565b82525050565b600060208201905061269a6000830184612676565b92915050565b60008115159050919050565b6126b5816126a0565b82525050565b600081519050919050565b600082825260208201905092915050565b60005b838110156126f55780820151818401526020810190506126da565b60008484015250505050565b6000601f19601f8301169050919050565b600061271d826126bb565b61272781856126c6565b93506127378185602086016126d7565b61274081612701565b840191505092915050565b600061010082019050612761600083018b61249d565b61276e602083018a61242e565b61277b604083018961242e565b612788606083018861242e565b61279560808301876126ac565b6127a260a083018661242e565b6127af60c083018561249d565b81810360e08301526127c18184612712565b90509998505050505050505050565b60006020820190506127e560008301846126ac565b92915050565b600080fd5b600080fd5b7f4e487b7100000000000000000000000000000000000000000000000000000000600052604160045260246000fd5b61282d82612701565b810181811067ffffffffffffffff8211171561284c5761284b6127f5565b5b80604052505050565b600061285f6122fd565b905061286b8282612824565b919050565b600067ffffffffffffffff82111561288b5761288a6127f5565b5b61289482612701565b9050602081019050919050565b82818337600083830152505050565b60006128c36128be84612870565b612855565b9050828152602081018484840111156128df576128de6127f0565b5b6128ea8482856128a1565b509392505050565b600082601f830112612907576129066127eb565b5b81356129178482602086016128b0565b91505092915050565b60008060006060848603121561293957612938612307565b5b600061294786828701612332565b935050602061295886828701612332565b925050604084013567ffffffffffffffff8111156129795761297861230c565b5b612985868287016128f2565b9150509250925092565b7f4f6e6c79206f776e65722063616e2063616c6c20746869730000000000000000600082015250565b60006129c56018836126c6565b91506129d08261298f565b602082019050919050565b600060208201905081810360008301526129f4816129b8565b9050919050565b7f4d6178207061727469636970616e7473206d757374206265206265747765656e60008201527f203220616e642031300000000000000000000000000000000000000000000000602082015250565b6000612a576029836126c6565b9150612a62826129fb565b604082019050919050565b60006020820190508181036000830152612a8681612a4a565b9050919050565b7f506c61796572206e6f7420696e20726f6f6d0000000000000000000000000000600082015250565b6000612ac36012836126c6565b9150612ace82612a8d565b602082019050919050565b60006020820190508181036000830152612af281612ab6565b9050919050565b7f4e487b7100000000000000000000000000000000000000000000000000000000600052601160045260246000fd5b6000612b3382612311565b915060008203612b4657612b45612af9565b5b600182039050919050565b7f4e487b7100000000000000000000000000000000000000000000000000000000600052603260045260246000fd5b7f4e6f74206a6f696e656400000000000000000000000000000000000000000000600082015250565b6000612bb6600a836126c6565b9150612bc182612b80565b602082019050919050565b60006020820190508181036000830152612be581612ba9565b9050919050565b6000612bf782612412565b9150612c0283612412565b9250828201905060ff811115612c1b57612c1a612af9565b5b92915050565b7f4e487b7100000000000000000000000000000000000000000000000000000000600052602260045260246000fd5b60006002820490506001821680612c6857607f821691505b602082108103612c7b57612c7a612c21565b5b50919050565b7f496e76616c6964207061727469636970616e7420636f756e7420666f7220637560008201527f7272656e7420676c6f62616c206d617800000000000000000000000000000000602082015250565b6000612cdd6030836126c6565b9150612ce882612c81565b604082019050919050565b60006020820190508181036000830152612d0c81612cd0565b9050919050565b7f5374616b65207265717569726564000000000000000000000000000000000000600082015250565b6000612d49600e836126c6565b9150612d5482612d13565b602082019050919050565b60006020820190508181036000830152612d7881612d3c565b9050919050565b7f4d65746164617461205552492072657175697265640000000000000000000000600082015250565b6000612db56015836126c6565b9150612dc082612d7f565b602082019050919050565b60006020820190508181036000830152612de481612da8565b9050919050565b6000612df682612311565b91507fffffffffffffffffffffffffffffffffffffffffffffffffffffffffffffffff8203612e2857612e27612af9565b5b600182019050919050565b60008190508160005260206000209050919050565b60006020601f8301049050919050565b600082821b905092915050565b600060088302612e957fffffffffffffffffffffffffffffffffffffffffffffffffffffffffffffffff82612e58565b612e9f8683612e58565b95508019841693508086168417925050509392505050565b6000612ed2612ecd612ec884612311565b612626565b612311565b9050919050565b6000819050919050565b612eec83612eb7565b612f00612ef882612ed9565b848454612e65565b825550505050565b600090565b612f15612f08565b612f20818484612ee3565b505050565b5b81811015612f4457612f39600082612f0d565b600181019050612f26565b5050565b601f821115612f8957612f5a81612e33565b612f6384612e48565b81016020851015612f72578190505b612f86612f7e85612e48565b830182612f25565b50505b505050565b600082821c905092915050565b6000612fac60001984600802612f8e565b1980831691505092915050565b6000612fc58383612f9b565b9150826002028217905092915050565b612fde826126bb565b67ffffffffffffffff811115612ff757612ff66127f5565b5b6130018254612c50565b61300c828285612f48565b600060209050601f83116001811461303f576000841561302d578287015190505b6130378582612fb9565b86555061309f565b601f19841661304d86612e33565b60005b8281101561307557848901518255600182019150602085019450602081019050613050565b86831015613092578489015161308e601f891682612f9b565b8355505b6001600288020188555050505b505050505050565b7f47616d6520737461727465640000000000000000000000000000000000000000600082015250565b60006130dd600c836126c6565b91506130e8826130a7565b602082019050919050565b6000602082019050818103600083015261310c816130d0565b9050919050565b7f526f6f6d2066756c6c0000000000000000000000000000000000000000000000600082015250565b60006131496009836126c6565b915061315482613113565b602082019050919050565b600060208201905081810360008301526131788161313c565b9050919050565b7f416c7265616479206a6f696e6564000000000000000000000000000000000000600082015250565b60006131b5600e836126c6565b91506131c08261317f565b602082019050919050565b600060208201905081810360008301526131e4816131a8565b9050919050565b7f4e6f742073746172746564000000000000000000000000000000000000000000600082015250565b6000613221600b836126c6565b915061322c826131eb565b602082019050919050565b6000602082019050818103600083015261325081613214565b9050919050565b7f4e6f7420796f7572207475726e00000000000000000000000000000000000000600082015250565b600061328d600d836126c6565b915061329882613257565b602082019050919050565b600060208201905081810360008301526132bc81613280565b9050919050565b7f47616d65206f7665720000000000000000000000000000000000000000000000600082015250565b60006132f96009836126c6565b9150613304826132c3565b602082019050919050565b60006020820190508181036000830152613328816132ec565b9050919050565b7f526f6c6c206e6f7420616c6c6f77656420696e2063757272656e7420736c6f74600082015250565b60006133656020836126c6565b91506133708261332f565b602082019050919050565b6000602082019050818103600083015261339481613358565b9050919050565b6000819050919050565b6133b66133b182612311565b61339b565b82525050565b60008160601b9050919050565b60006133d4826133bc565b9050919050565b60006133e6826133c9565b9050919050565b6133fe6133f982612394565b6133db565b82525050565b600061341082856133a5565b60208201915061342082846133ed565b6014820191508190509392505050565b7f4e487b7100000000000000000000000000000000000000000000000000000000600052601260045260246000fd5b600061346a82612311565b915061347583612311565b92508261348557613484613430565b5b828206905092915050565b600061349b82612311565b91506134a683612311565b92508282019050808211156134be576134bd612af9565b5b92915050565b60006134cf82612412565b91506134da83612412565b9250826134ea576134e9613430565b5b828204905092915050565b600081905092915050565b7f626f6e7573000000000000000000000000000000000000000000000000000000600082015250565b60006135366005836134f5565b915061354182613500565b600582019050919050565b600061355882856133a5565b60208201915061356882846133ed565b60148201915061357782613529565b91508190509392505050565b600061358e82612311565b915061359983612311565b92508282026135a781612311565b915082820484148315176135be576135bd612af9565b5b5092915050565b60006040820190506135da600083018561249d565b6135e7602083018461241f565b9392505050565b6000606082019050613603600083018661249d565b613610602083018561249d565b61361d604083018461242e565b949350505050565b7f47616d65206e6f74207374617274656400000000000000000000000000000000600082015250565b600061365b6010836126c6565b915061366682613625565b602082019050919050565b6000602082019050818103600083015261368a8161364e565b9050919050565b600061369c82612311565b91506136a783612311565b92508282039050818111156136bf576136be612af9565b5b92915050565b60006136d082612311565b91506136db83612311565b9250826136eb576136ea613430565b5b828204905092915050565b600060408201905061370b600083018561249d565b613718602083018461242e565b939250505056fea2646970667358221220b320247180ed1e56bf39c3c12e4d54548e936519d317911f1e2fba3925acdd5364736f6c634300081c0033",
  "linkReferences": {},
  "deployedLinkReferences": {}
}